{
  "contractName": "MedicalRecord",
  "abi": [
    {
      "constant": true,
      "inputs": [],
      "name": "medicalProblemCount",
      "outputs": [
        {
          "name": "",
          "type": "uint256"
        }
      ],
      "payable": false,
      "stateMutability": "view",
      "type": "function"
    },
    {
      "constant": true,
      "inputs": [],
      "name": "patientIssueCount",
      "outputs": [
        {
          "name": "",
          "type": "uint256"
        }
      ],
      "payable": false,
      "stateMutability": "view",
      "type": "function"
    },
    {
      "constant": true,
      "inputs": [
        {
          "name": "",
          "type": "address"
        }
      ],
      "name": "patientIssues",
      "outputs": [
        {
          "name": "id",
          "type": "uint256"
        }
      ],
      "payable": false,
      "stateMutability": "view",
      "type": "function"
    },
    {
      "constant": true,
      "inputs": [
        {
          "name": "",
          "type": "uint256"
        }
      ],
      "name": "medicalProblems",
      "outputs": [
        {
          "name": "id",
          "type": "uint256"
        },
        {
          "name": "title",
          "type": "string"
        },
        {
          "name": "beginDate",
          "type": "uint256"
        },
        {
          "name": "endDate",
          "type": "uint256"
        },
        {
          "name": "occurance",
          "type": "string"
        },
        {
          "name": "severity",
          "type": "string"
        },
        {
          "name": "referredBy",
          "type": "string"
        },
        {
          "name": "isAllergyType",
          "type": "bool"
        },
        {
          "name": "patientAddress",
          "type": "address"
        }
      ],
      "payable": false,
      "stateMutability": "view",
      "type": "function"
    },
    {
      "constant": true,
      "inputs": [
        {
          "name": "",
          "type": "address"
        }
      ],
      "name": "candidateRoles",
      "outputs": [
        {
          "name": "",
          "type": "uint8"
        }
      ],
      "payable": false,
      "stateMutability": "view",
      "type": "function"
    },
    {
      "constant": true,
      "inputs": [
        {
          "name": "",
          "type": "uint256"
        }
      ],
      "name": "patientIssueIndexes",
      "outputs": [
        {
          "name": "",
          "type": "uint256"
        }
      ],
      "payable": false,
      "stateMutability": "view",
      "type": "function"
    },
    {
      "constant": true,
      "inputs": [],
      "name": "patientMedicationCount",
      "outputs": [
        {
          "name": "",
          "type": "uint256"
        }
      ],
      "payable": false,
      "stateMutability": "view",
      "type": "function"
    },
    {
      "constant": true,
      "inputs": [],
      "name": "medicationCount",
      "outputs": [
        {
          "name": "",
          "type": "uint256"
        }
      ],
      "payable": false,
      "stateMutability": "view",
      "type": "function"
    },
    {
      "constant": true,
      "inputs": [
        {
          "name": "",
          "type": "uint256"
        }
      ],
      "name": "medicationIndexes",
      "outputs": [
        {
          "name": "",
          "type": "uint256"
        }
      ],
      "payable": false,
      "stateMutability": "view",
      "type": "function"
    },
    {
      "constant": true,
      "inputs": [
        {
          "name": "",
          "type": "uint256"
        }
      ],
      "name": "candidateList",
      "outputs": [
        {
          "name": "",
          "type": "address"
        }
      ],
      "payable": false,
      "stateMutability": "view",
      "type": "function"
    },
    {
      "constant": true,
      "inputs": [],
      "name": "contractOwner",
      "outputs": [
        {
          "name": "",
          "type": "address"
        }
      ],
      "payable": false,
      "stateMutability": "view",
      "type": "function"
    },
    {
      "constant": true,
      "inputs": [
        {
          "name": "",
          "type": "address"
        }
      ],
      "name": "patientMedications",
      "outputs": [
        {
          "name": "id",
          "type": "uint256"
        }
      ],
      "payable": false,
      "stateMutability": "view",
      "type": "function"
    },
    {
      "constant": true,
      "inputs": [
        {
          "name": "",
          "type": "uint256"
        }
      ],
      "name": "patientMedicationIndexes",
      "outputs": [
        {
          "name": "",
          "type": "uint256"
        }
      ],
      "payable": false,
      "stateMutability": "view",
      "type": "function"
    },
    {
      "constant": true,
      "inputs": [
        {
          "name": "",
          "type": "uint256"
        }
      ],
      "name": "medications",
      "outputs": [
        {
          "name": "id",
          "type": "uint256"
        },
        {
          "name": "name",
          "type": "string"
        },
        {
          "name": "beginDate",
          "type": "uint256"
        },
        {
          "name": "endDate",
          "type": "uint256"
        },
        {
          "name": "dosage",
          "type": "string"
        },
        {
          "name": "referredBy",
          "type": "string"
        },
        {
          "name": "hospName",
          "type": "string"
        },
        {
          "name": "medicalProblemId",
          "type": "uint256"
        }
      ],
      "payable": false,
      "stateMutability": "view",
      "type": "function"
    },
    {
      "inputs": [],
      "payable": false,
      "stateMutability": "nonpayable",
      "type": "constructor"
    },
    {
      "constant": false,
      "inputs": [
        {
          "name": "_candidate",
          "type": "address"
        },
        {
          "name": "_candidateRoles",
          "type": "uint8"
        }
      ],
      "name": "registerCandidate",
      "outputs": [],
      "payable": false,
      "stateMutability": "nonpayable",
      "type": "function"
    },
    {
      "constant": true,
      "inputs": [
        {
          "name": "_candidate",
          "type": "address"
        }
      ],
      "name": "validateCandidate",
      "outputs": [
        {
          "name": "",
          "type": "bool"
        }
      ],
      "payable": false,
      "stateMutability": "view",
      "type": "function"
    },
    {
      "constant": true,
      "inputs": [
        {
          "name": "_candidate",
          "type": "address"
        }
      ],
      "name": "getCandidateByAddress",
      "outputs": [
        {
          "name": "",
          "type": "address"
        },
        {
          "name": "",
          "type": "string"
        }
      ],
      "payable": false,
      "stateMutability": "view",
      "type": "function"
    },
    {
      "constant": true,
      "inputs": [],
      "name": "getAllCandidates",
      "outputs": [
        {
          "name": "",
          "type": "address[]"
        },
        {
          "name": "",
          "type": "string[]"
        }
      ],
      "payable": false,
      "stateMutability": "view",
      "type": "function"
    },
    {
      "constant": true,
      "inputs": [
        {
          "name": "_medicalProblemId",
          "type": "uint256"
        }
      ],
      "name": "getMedicalProblemById",
      "outputs": [
        {
          "components": [
            {
              "name": "id",
              "type": "uint256"
            },
            {
              "name": "title",
              "type": "string"
            },
            {
              "name": "beginDate",
              "type": "uint256"
            },
            {
              "name": "endDate",
              "type": "uint256"
            },
            {
              "name": "occurance",
              "type": "string"
            },
            {
              "name": "severity",
              "type": "string"
            },
            {
              "name": "referredBy",
              "type": "string"
            },
            {
              "name": "isAllergyType",
              "type": "bool"
            },
            {
              "name": "patientAddress",
              "type": "address"
            }
          ],
          "name": "",
          "type": "tuple"
        }
      ],
      "payable": false,
      "stateMutability": "view",
      "type": "function"
    },
    {
      "constant": true,
      "inputs": [
        {
          "name": "_patientAddress",
          "type": "address"
        }
      ],
      "name": "getMedicalProblemsByAddress",
      "outputs": [
        {
          "components": [
            {
              "name": "id",
              "type": "uint256"
            },
            {
              "name": "title",
              "type": "string"
            },
            {
              "name": "beginDate",
              "type": "uint256"
            },
            {
              "name": "endDate",
              "type": "uint256"
            },
            {
              "name": "occurance",
              "type": "string"
            },
            {
              "name": "severity",
              "type": "string"
            },
            {
              "name": "referredBy",
              "type": "string"
            },
            {
              "name": "isAllergyType",
              "type": "bool"
            },
            {
              "name": "patientAddress",
              "type": "address"
            }
          ],
          "name": "",
          "type": "tuple[]"
        }
      ],
      "payable": false,
      "stateMutability": "view",
      "type": "function"
    },
    {
      "constant": true,
      "inputs": [],
      "name": "getAllMedicalProblems",
      "outputs": [
        {
          "components": [
            {
              "name": "id",
              "type": "uint256"
            },
            {
              "name": "title",
              "type": "string"
            },
            {
              "name": "beginDate",
              "type": "uint256"
            },
            {
              "name": "endDate",
              "type": "uint256"
            },
            {
              "name": "occurance",
              "type": "string"
            },
            {
              "name": "severity",
              "type": "string"
            },
            {
              "name": "referredBy",
              "type": "string"
            },
            {
              "name": "isAllergyType",
              "type": "bool"
            },
            {
              "name": "patientAddress",
              "type": "address"
            }
          ],
          "name": "",
          "type": "tuple[]"
        }
      ],
      "payable": false,
      "stateMutability": "view",
      "type": "function"
    },
    {
      "constant": true,
      "inputs": [
        {
          "name": "_medicationId",
          "type": "uint256"
        }
      ],
      "name": "getMedicationById",
      "outputs": [
        {
          "components": [
            {
              "name": "id",
              "type": "uint256"
            },
            {
              "name": "name",
              "type": "string"
            },
            {
              "name": "beginDate",
              "type": "uint256"
            },
            {
              "name": "endDate",
              "type": "uint256"
            },
            {
              "name": "dosage",
              "type": "string"
            },
            {
              "name": "referredBy",
              "type": "string"
            },
            {
              "name": "hospName",
              "type": "string"
            },
            {
              "name": "medicalProblemId",
              "type": "uint256"
            },
            {
              "name": "candidateAddress",
              "type": "address[]"
            }
          ],
          "name": "",
          "type": "tuple"
        }
      ],
      "payable": false,
      "stateMutability": "view",
      "type": "function"
    },
    {
      "constant": true,
      "inputs": [],
      "name": "getAllMedications",
      "outputs": [
        {
          "components": [
            {
              "name": "id",
              "type": "uint256"
            },
            {
              "name": "name",
              "type": "string"
            },
            {
              "name": "beginDate",
              "type": "uint256"
            },
            {
              "name": "endDate",
              "type": "uint256"
            },
            {
              "name": "dosage",
              "type": "string"
            },
            {
              "name": "referredBy",
              "type": "string"
            },
            {
              "name": "hospName",
              "type": "string"
            },
            {
              "name": "medicalProblemId",
              "type": "uint256"
            },
            {
              "name": "candidateAddress",
              "type": "address[]"
            }
          ],
          "name": "",
          "type": "tuple[]"
        }
      ],
      "payable": false,
      "stateMutability": "view",
      "type": "function"
    },
    {
      "constant": true,
      "inputs": [
        {
          "name": "_patientAddress",
          "type": "address"
        }
      ],
      "name": "getMedicationsByAddress",
      "outputs": [
        {
          "components": [
            {
              "name": "id",
              "type": "uint256"
            },
            {
              "name": "name",
              "type": "string"
            },
            {
              "name": "beginDate",
              "type": "uint256"
            },
            {
              "name": "endDate",
              "type": "uint256"
            },
            {
              "name": "dosage",
              "type": "string"
            },
            {
              "name": "referredBy",
              "type": "string"
            },
            {
              "name": "hospName",
              "type": "string"
            },
            {
              "name": "medicalProblemId",
              "type": "uint256"
            },
            {
              "name": "candidateAddress",
              "type": "address[]"
            }
          ],
          "name": "",
          "type": "tuple[]"
        }
      ],
      "payable": false,
      "stateMutability": "view",
      "type": "function"
    },
    {
      "constant": true,
      "inputs": [
        {
          "name": "_medicationId",
          "type": "uint256"
        },
        {
          "name": "_candidateAddress",
          "type": "address"
        }
      ],
      "name": "canViewMedicationByCandidate",
      "outputs": [
        {
          "name": "",
          "type": "bool"
        }
      ],
      "payable": false,
      "stateMutability": "view",
      "type": "function"
    },
    {
      "constant": true,
      "inputs": [
        {
          "name": "_patientAddress",
          "type": "address"
        },
        {
          "name": "_candidateAddress",
          "type": "address"
        }
      ],
      "name": "getPatientMedicationsByAddress",
      "outputs": [
        {
          "components": [
            {
              "name": "id",
              "type": "uint256"
            },
            {
              "name": "name",
              "type": "string"
            },
            {
              "name": "beginDate",
              "type": "uint256"
            },
            {
              "name": "endDate",
              "type": "uint256"
            },
            {
              "name": "dosage",
              "type": "string"
            },
            {
              "name": "referredBy",
              "type": "string"
            },
            {
              "name": "hospName",
              "type": "string"
            },
            {
              "name": "medicalProblemId",
              "type": "uint256"
            },
            {
              "name": "candidateAddress",
              "type": "address[]"
            }
          ],
          "name": "",
          "type": "tuple[]"
        }
      ],
      "payable": false,
      "stateMutability": "view",
      "type": "function"
    },
    {
      "constant": true,
      "inputs": [
        {
          "name": "_candidateAddress",
          "type": "address"
        }
      ],
      "name": "getPatientMedicationsByAddress",
      "outputs": [
        {
          "components": [
            {
              "name": "id",
              "type": "uint256"
            },
            {
              "name": "name",
              "type": "string"
            },
            {
              "name": "beginDate",
              "type": "uint256"
            },
            {
              "name": "endDate",
              "type": "uint256"
            },
            {
              "name": "dosage",
              "type": "string"
            },
            {
              "name": "referredBy",
              "type": "string"
            },
            {
              "name": "hospName",
              "type": "string"
            },
            {
              "name": "medicalProblemId",
              "type": "uint256"
            },
            {
              "name": "candidateAddress",
              "type": "address[]"
            }
          ],
          "name": "",
          "type": "tuple[]"
        }
      ],
      "payable": false,
      "stateMutability": "view",
      "type": "function"
    },
    {
      "constant": true,
      "inputs": [
        {
          "name": "_candidateAddress",
          "type": "address"
        }
      ],
      "name": "getPatientMedicalProblemsByAddress",
      "outputs": [
        {
          "components": [
            {
              "name": "id",
              "type": "uint256"
            },
            {
              "name": "title",
              "type": "string"
            },
            {
              "name": "beginDate",
              "type": "uint256"
            },
            {
              "name": "endDate",
              "type": "uint256"
            },
            {
              "name": "occurance",
              "type": "string"
            },
            {
              "name": "severity",
              "type": "string"
            },
            {
              "name": "referredBy",
              "type": "string"
            },
            {
              "name": "isAllergyType",
              "type": "bool"
            },
            {
              "name": "patientAddress",
              "type": "address"
            }
          ],
          "name": "",
          "type": "tuple[]"
        }
      ],
      "payable": false,
      "stateMutability": "view",
      "type": "function"
    },
    {
      "constant": true,
      "inputs": [
        {
          "name": "_patientAddress",
          "type": "address"
        },
        {
          "name": "_candidateAddress",
          "type": "address"
        }
      ],
      "name": "getPatientMedicalProblemsByAddress",
      "outputs": [
        {
          "components": [
            {
              "name": "id",
              "type": "uint256"
            },
            {
              "name": "title",
              "type": "string"
            },
            {
              "name": "beginDate",
              "type": "uint256"
            },
            {
              "name": "endDate",
              "type": "uint256"
            },
            {
              "name": "occurance",
              "type": "string"
            },
            {
              "name": "severity",
              "type": "string"
            },
            {
              "name": "referredBy",
              "type": "string"
            },
            {
              "name": "isAllergyType",
              "type": "bool"
            },
            {
              "name": "patientAddress",
              "type": "address"
            }
          ],
          "name": "",
          "type": "tuple[]"
        }
      ],
      "payable": false,
      "stateMutability": "view",
      "type": "function"
    },
    {
      "constant": false,
      "inputs": [
        {
          "name": "_title",
          "type": "string"
        },
        {
          "name": "_beginDate",
          "type": "uint256"
        },
        {
          "name": "_endDate",
          "type": "uint256"
        },
        {
          "name": "_occurance",
          "type": "string"
        },
        {
          "name": "_severity",
          "type": "string"
        },
        {
          "name": "_referredBy",
          "type": "string"
        },
        {
          "name": "_isAllergyType",
          "type": "bool"
        },
        {
          "name": "_patientAddress",
          "type": "address"
        }
      ],
      "name": "createMedicalProblem",
      "outputs": [],
      "payable": false,
      "stateMutability": "nonpayable",
      "type": "function"
    },
    {
      "constant": false,
      "inputs": [
        {
          "name": "_doctorAddress",
          "type": "address"
        },
        {
          "name": "_medicalProblemId",
          "type": "uint256"
        }
      ],
      "name": "createPatientIssue",
      "outputs": [],
      "payable": false,
      "stateMutability": "nonpayable",
      "type": "function"
    },
    {
      "constant": false,
      "inputs": [
        {
          "name": "_title",
          "type": "string"
        },
        {
          "name": "_beginDate",
          "type": "uint256"
        },
        {
          "name": "_endDate",
          "type": "uint256"
        },
        {
          "name": "_occurance",
          "type": "string"
        },
        {
          "name": "_severity",
          "type": "string"
        },
        {
          "name": "_referredBy",
          "type": "string"
        },
        {
          "name": "_isAllergyType",
          "type": "bool"
        },
        {
          "name": "_patientAddress",
          "type": "address"
        },
        {
          "name": "_doctorAddress",
          "type": "address"
        }
      ],
      "name": "submitIssue",
      "outputs": [
        {
          "name": "",
          "type": "bool"
        }
      ],
      "payable": false,
      "stateMutability": "nonpayable",
      "type": "function"
    },
    {
      "constant": false,
      "inputs": [
        {
          "name": "_name",
          "type": "string"
        },
        {
          "name": "_beginDate",
          "type": "uint256"
        },
        {
          "name": "_endDate",
          "type": "uint256"
        },
        {
          "name": "_dosage",
          "type": "string"
        },
        {
          "name": "_referredBy",
          "type": "string"
        },
        {
          "name": "_hospName",
          "type": "string"
        },
        {
          "name": "_medicalProblemId",
          "type": "uint256"
        }
      ],
      "name": "createMedication",
      "outputs": [],
      "payable": false,
      "stateMutability": "nonpayable",
      "type": "function"
    },
    {
      "constant": false,
      "inputs": [
        {
          "name": "_name",
          "type": "string"
        },
        {
          "name": "_beginDate",
          "type": "uint256"
        },
        {
          "name": "_endDate",
          "type": "uint256"
        },
        {
          "name": "_dosage",
          "type": "string"
        },
        {
          "name": "_referredBy",
          "type": "string"
        },
        {
          "name": "_hospName",
          "type": "string"
        },
        {
          "name": "_medicalProblemId",
          "type": "uint256"
        },
        {
          "name": "_patientAddress",
          "type": "address"
        }
      ],
      "name": "prescribeMedication",
      "outputs": [
        {
          "name": "_result",
          "type": "bool"
        }
      ],
      "payable": false,
      "stateMutability": "nonpayable",
      "type": "function"
    },
    {
      "constant": false,
      "inputs": [
        {
          "name": "_candidateAddress",
          "type": "address"
        },
        {
          "name": "_medicationId",
          "type": "uint256"
        }
      ],
      "name": "shareMedicationTo",
      "outputs": [],
      "payable": false,
      "stateMutability": "nonpayable",
      "type": "function"
    }
  ],
  "bytecode": "0x6080604052600060025560006003556000600455600060055534801561002457600080fd5b50336000806101000a81548173ffffffffffffffffffffffffffffffffffffffff021916908373ffffffffffffffffffffffffffffffffffffffff160217905550615dd180620000756000396000f3fe608060405234801561001057600080fd5b50600436106102115760003560e01c8063854c8dfd11610125578063b8f53d7a116100ad578063d2bfa43c1161007c578063d2bfa43c146106cc578063d6c04bb9146106fc578063f4a9c2291461072c578063f9fb840b1461075c578063fa8547f61461078c57610211565b8063b8f53d7a14610632578063cc35f3b314610662578063ce606ee01461067e578063cfc706c51461069c57610211565b80639c0d4436116100f45780639c0d443614610553578063ad25e82914610583578063b13c744b146105b4578063b40e609e146105e4578063b444dae01461060257610211565b8063854c8dfd146104b95780638d72d670146104e95780638ea9c9a81461050757806392deefa11461052357610211565b80633063fc4b116101a85780634a201660116101775780634a201660146103ed5780635f1f76f41461040b5780636c428d251461043b57806381c8f3aa1461046b57806382a98d4d1461049b57610211565b80633063fc4b1461033957806332b9603b146103695780634450af981461039957806344d292b9146103b557610211565b806323d5512a116101e457806323d5512a146102b0578063244fb9b0146102cc57806328530aec146102ea5780632e6997fe1461031a57610211565b80630445cc681461021657806304bec5de1461024657806317630b98146102645780631beb3bb114610294575b600080fd5b610230600480360361022b9190810190614a5b565b6107c3565b60405161023d919061583a565b60405180910390f35b61024e610c1d565b60405161025b9190615978565b60405180910390f35b61027e60048036036102799190810190614c4a565b610c23565b60405161028b919061587e565b60405180910390f35b6102ae60048036036102a99190810190614d70565b610dff565b005b6102ca60048036036102c59190810190614ac0565b6110bb565b005b6102d461125d565b6040516102e19190615978565b60405180910390f35b61030460048036036102ff9190810190614a5b565b611263565b604051610311919061585c565b60405180910390f35b6103226113b6565b604051610330929190615803565b60405180910390f35b610353600480360361034e9190810190614f80565b611711565b6040516103609190615934565b60405180910390f35b610383600480360361037e9190810190614a5b565b611aac565b6040516103909190615978565b60405180910390f35b6103b360048036036103ae9190810190614b38565b611aca565b005b6103cf60048036036103ca9190810190614f80565b611d44565b6040516103e499989796959493929190615993565b60405180910390f35b6103f561202c565b604051610402919061583a565b60405180910390f35b61042560048036036104209190810190614a5b565b6123a3565b6040516104329190615899565b60405180910390f35b61045560048036036104509190810190614f80565b6123c3565b6040516104629190615978565b60405180910390f35b61048560048036036104809190810190614a5b565b6123e4565b604051610492919061585c565b60405180910390f35b6104a3612816565b6040516104b09190615978565b60405180910390f35b6104d360048036036104ce9190810190614e6e565b61281c565b6040516104e0919061587e565b60405180910390f35b6104f1612a09565b6040516104fe9190615978565b60405180910390f35b610521600480360361051c9190810190614afc565b612a0f565b005b61053d60048036036105389190810190614f80565b612c81565b60405161054a9190615978565b60405180910390f35b61056d60048036036105689190810190614a5b565b612ca2565b60405161057a919061587e565b60405180910390f35b61059d60048036036105989190810190614a5b565b612d44565b6040516105ab9291906157d3565b60405180910390f35b6105ce60048036036105c99190810190614f80565b612f12565b6040516105db91906157b8565b60405180910390f35b6105ec612f4e565b6040516105f9919061585c565b60405180910390f35b61061c60048036036106179190810190614a5b565b613332565b604051610629919061583a565b60405180910390f35b61064c60048036036106479190810190614a84565b61347c565b604051610659919061585c565b60405180910390f35b61067c60048036036106779190810190614afc565b61356d565b005b610686613a9a565b60405161069391906157b8565b60405180910390f35b6106b660048036036106b19190810190614fa9565b613abf565b6040516106c3919061587e565b60405180910390f35b6106e660048036036106e19190810190614a5b565b613ead565b6040516106f39190615978565b60405180910390f35b61071660048036036107119190810190614f80565b613ecb565b6040516107239190615956565b60405180910390f35b61074660048036036107419190810190614f80565b61427d565b6040516107539190615978565b60405180910390f35b61077660048036036107719190810190614a84565b61429e565b604051610783919061583a565b60405180910390f35b6107a660048036036107a19190810190614f80565b6143af565b6040516107ba989796959493929190615a3c565b60405180910390f35b60608060088054905060405190808252806020026020018201604052801561080557816020015b6107f2614657565b8152602001906001900390816107ea5790505b50905060008090505b600880549050811015610c13578373ffffffffffffffffffffffffffffffffffffffff166008828154811061083f57fe5b906000526020600020906008020160070160019054906101000a900473ffffffffffffffffffffffffffffffffffffffff1673ffffffffffffffffffffffffffffffffffffffff161415610be7576008818154811061089a57fe5b90600052602060002090600802016040518061012001604052908160008201548152602001600182018054600181600116156101000203166002900480601f0160208091040260200160405190810160405280929190818152602001828054600181600116156101000203166002900480156109575780601f1061092c57610100808354040283529160200191610957565b820191906000526020600020905b81548152906001019060200180831161093a57829003601f168201915b505050505081526020016002820154815260200160038201548152602001600482018054600181600116156101000203166002900480601f016020809104026020016040519081016040528092919081815260200182805460018160011615610100020316600290048015610a0d5780601f106109e257610100808354040283529160200191610a0d565b820191906000526020600020905b8154815290600101906020018083116109f057829003601f168201915b50505050508152602001600582018054600181600116156101000203166002900480601f016020809104026020016040519081016040528092919081815260200182805460018160011615610100020316600290048015610aaf5780601f10610a8457610100808354040283529160200191610aaf565b820191906000526020600020905b815481529060010190602001808311610a9257829003601f168201915b50505050508152602001600682018054600181600116156101000203166002900480601f016020809104026020016040519081016040528092919081815260200182805460018160011615610100020316600290048015610b515780601f10610b2657610100808354040283529160200191610b51565b820191906000526020600020905b815481529060010190602001808311610b3457829003601f168201915b505050505081526020016007820160009054906101000a900460ff161515151581526020016007820160019054906101000a900473ffffffffffffffffffffffffffffffffffffffff1673ffffffffffffffffffffffffffffffffffffffff1673ffffffffffffffffffffffffffffffffffffffff1681525050828281518110610bd757fe5b6020026020010181905250610c06565b818181518110610bf357fe5b60200260200101610c02614657565b8152505b808060010191505061080e565b5080915050919050565b60025481565b600033600180811115610c3257fe5b600760008373ffffffffffffffffffffffffffffffffffffffff1673ffffffffffffffffffffffffffffffffffffffff16815260200190815260200160002060009054906101000a900460ff166001811115610c8a57fe5b1480610cf8575060006001811115610c9e57fe5b600760008373ffffffffffffffffffffffffffffffffffffffff1673ffffffffffffffffffffffffffffffffffffffff16815260200190815260200160002060009054906101000a900460ff166001811115610cf657fe5b145b15610df15760006008805490509050610d178c8c8c8c8c8c8c8c611aca565b806008805490501115610dee576008805490509050600060086001830381548110610d3e57fe5b9060005260206000209060080201600001549050610d7d8560086001850381548110610d6657fe5b906000526020600020906008020160000154612a0f565b80600a60008773ffffffffffffffffffffffffffffffffffffffff1673ffffffffffffffffffffffffffffffffffffffff1681526020019081526020016000206001016000838152602001908152602001600020541415610de357600193505050610df0565b600093505050610df0565b505b5b509998505050505050505050565b3360006001811115610e0d57fe5b600760008373ffffffffffffffffffffffffffffffffffffffff1673ffffffffffffffffffffffffffffffffffffffff16815260200190815260200160002060009054906101000a900460ff166001811115610e6557fe5b14610ea5576040517f08c379a0000000000000000000000000000000000000000000000000000000008152600401610e9c906158f4565b60405180910390fd5b600460008154809291906001019190505550610ebf6146bb565b60405180610120016040528060045481526020018a81526020018981526020018881526020018781526020018681526020018581526020018481526020016000604051908082528060200260200182016040528015610f2d5781602001602082028038833980820191505090505b50815250905080600c60006004548152602001908152602001600020600082015181600001556020820151816001019080519060200190610f6f929190614707565b5060408201518160020155606082015181600301556080820151816004019080519060200190610fa0929190614707565b5060a0820151816005019080519060200190610fbd929190614707565b5060c0820151816006019080519060200190610fda929190614707565b5060e08201518160070155610100820151816008019080519060200190611002929190614787565b50905050600c600060045481526020019081526020016000206008013390806001815401808255809150509060018203906000526020600020016000909192909190916101000a81548173ffffffffffffffffffffffffffffffffffffffff021916908373ffffffffffffffffffffffffffffffffffffffff16021790555050600b6004549080600181540180825580915050906001820390600052602060002001600090919290919091505550505050505050505050565b6000809054906101000a900473ffffffffffffffffffffffffffffffffffffffff1673ffffffffffffffffffffffffffffffffffffffff163373ffffffffffffffffffffffffffffffffffffffff161461114a576040517f08c379a0000000000000000000000000000000000000000000000000000000008152600401611141906158f4565b60405180910390fd5b61115382612ca2565b15611193576040517f08c379a000000000000000000000000000000000000000000000000000000000815260040161118a906158b4565b60405180910390fd5b60018290806001815401808255809150509060018203906000526020600020016000909192909190916101000a81548173ffffffffffffffffffffffffffffffffffffffff021916908373ffffffffffffffffffffffffffffffffffffffff1602179055505080600760008473ffffffffffffffffffffffffffffffffffffffff1673ffffffffffffffffffffffffffffffffffffffff16815260200190815260200160002060006101000a81548160ff0219169083600181111561125457fe5b02179055505050565b60035481565b606080600b805490506040519080825280602002602001820160405280156112a557816020015b611292614811565b81526020019060019003908161128a5790505b5090506000600190505b600b8054905081116113ac57611317600e60008673ffffffffffffffffffffffffffffffffffffffff1673ffffffffffffffffffffffffffffffffffffffff168152602001908152602001600020600101600083815260200190815260200160002054613ecb565b82600183038151811061132657fe5b6020026020010181905250600182600183038151811061134257fe5b60200260200101516000015110806113785750600b8054905082600183038151811061136a57fe5b602002602001015160000151115b1561139f5781600182038151811061138c57fe5b6020026020010161139b614811565b8152505b80806001019150506112af565b5080915050919050565b60608060606001805490506040519080825280602002602001820160405280156113ef5781602001602082028038833980820191505090505b509050606060018054905060405190808252806020026020018201604052801561142d57816020015b60608152602001906001900390816114185790505b50905060008090505b600180549050811015611704576000600181111561145057fe5b600760006001848154811061146157fe5b9060005260206000200160009054906101000a900473ffffffffffffffffffffffffffffffffffffffff1673ffffffffffffffffffffffffffffffffffffffff1673ffffffffffffffffffffffffffffffffffffffff16815260200190815260200160002060009054906101000a900460ff1660018111156114df57fe5b1415611537576040518060400160405280600681526020017f446f63746f72000000000000000000000000000000000000000000000000000081525082828151811061152757fe5b6020026020010181905250611679565b60018081111561154357fe5b600760006001848154811061155457fe5b9060005260206000200160009054906101000a900473ffffffffffffffffffffffffffffffffffffffff1673ffffffffffffffffffffffffffffffffffffffff1673ffffffffffffffffffffffffffffffffffffffff16815260200190815260200160002060009054906101000a900460ff1660018111156115d257fe5b141561162a576040518060400160405280600781526020017f50617469656e740000000000000000000000000000000000000000000000000081525082828151811061161a57fe5b6020026020010181905250611678565b6040518060400160405280601181526020017f4d65646963616c20417373697374616e7400000000000000000000000000000081525082828151811061166c57fe5b60200260200101819052505b5b6001818154811061168657fe5b9060005260206000200160009054906101000a900473ffffffffffffffffffffffffffffffffffffffff168382815181106116bd57fe5b602002602001019073ffffffffffffffffffffffffffffffffffffffff16908173ffffffffffffffffffffffffffffffffffffffff16815250508080600101915050611436565b5081819350935050509091565b61171961485d565b60008090505b600880549050811015611aa557826008828154811061173a57fe5b9060005260206000209060080201600001541415611a98576008818154811061175f57fe5b90600052602060002090600802016040518061012001604052908160008201548152602001600182018054600181600116156101000203166002900480601f01602080910402602001604051908101604052809291908181526020018280546001816001161561010002031660029004801561181c5780601f106117f15761010080835404028352916020019161181c565b820191906000526020600020905b8154815290600101906020018083116117ff57829003601f168201915b505050505081526020016002820154815260200160038201548152602001600482018054600181600116156101000203166002900480601f0160208091040260200160405190810160405280929190818152602001828054600181600116156101000203166002900480156118d25780601f106118a7576101008083540402835291602001916118d2565b820191906000526020600020905b8154815290600101906020018083116118b557829003601f168201915b50505050508152602001600582018054600181600116156101000203166002900480601f0160208091040260200160405190810160405280929190818152602001828054600181600116156101000203166002900480156119745780601f1061194957610100808354040283529160200191611974565b820191906000526020600020905b81548152906001019060200180831161195757829003601f168201915b50505050508152602001600682018054600181600116156101000203166002900480601f016020809104026020016040519081016040528092919081815260200182805460018160011615610100020316600290048015611a165780601f106119eb57610100808354040283529160200191611a16565b820191906000526020600020905b8154815290600101906020018083116119f957829003601f168201915b505050505081526020016007820160009054906101000a900460ff161515151581526020016007820160019054906101000a900473ffffffffffffffffffffffffffffffffffffffff1673ffffffffffffffffffffffffffffffffffffffff1673ffffffffffffffffffffffffffffffffffffffff1681525050915050611aa7565b808060010191505061171f565b505b919050565b600a6020528060005260406000206000915090508060000154905081565b33600180811115611ad757fe5b600760008373ffffffffffffffffffffffffffffffffffffffff1673ffffffffffffffffffffffffffffffffffffffff16815260200190815260200160002060009054906101000a900460ff166001811115611b2f57fe5b1480611b9d575060006001811115611b4357fe5b600760008373ffffffffffffffffffffffffffffffffffffffff1673ffffffffffffffffffffffffffffffffffffffff16815260200190815260200160002060009054906101000a900460ff166001811115611b9b57fe5b145b15611d3957600260008154809291906001019190505550600860405180610120016040528060025481526020018b81526020018a815260200189815260200188815260200187815260200186815260200185151581526020018473ffffffffffffffffffffffffffffffffffffffff1681525090806001815401808255809150509060018203906000526020600020906008020160009091929091909150600082015181600001556020820151816001019080519060200190611c61929190614707565b5060408201518160020155606082015181600301556080820151816004019080519060200190611c92929190614707565b5060a0820151816005019080519060200190611caf929190614707565b5060c0820151816006019080519060200190611ccc929190614707565b5060e08201518160070160006101000a81548160ff0219169083151502179055506101008201518160070160016101000a81548173ffffffffffffffffffffffffffffffffffffffff021916908373ffffffffffffffffffffffffffffffffffffffff1602179055505050505b505050505050505050565b60088181548110611d5157fe5b9060005260206000209060080201600091509050806000015490806001018054600181600116156101000203166002900480601f016020809104026020016040519081016040528092919081815260200182805460018160011615610100020316600290048015611e035780601f10611dd857610100808354040283529160200191611e03565b820191906000526020600020905b815481529060010190602001808311611de657829003601f168201915b505050505090806002015490806003015490806004018054600181600116156101000203166002900480601f016020809104026020016040519081016040528092919081815260200182805460018160011615610100020316600290048015611ead5780601f10611e8257610100808354040283529160200191611ead565b820191906000526020600020905b815481529060010190602001808311611e9057829003601f168201915b505050505090806005018054600181600116156101000203166002900480601f016020809104026020016040519081016040528092919081815260200182805460018160011615610100020316600290048015611f4b5780601f10611f2057610100808354040283529160200191611f4b565b820191906000526020600020905b815481529060010190602001808311611f2e57829003601f168201915b505050505090806006018054600181600116156101000203166002900480601f016020809104026020016040519081016040528092919081815260200182805460018160011615610100020316600290048015611fe95780601f10611fbe57610100808354040283529160200191611fe9565b820191906000526020600020905b815481529060010190602001808311611fcc57829003601f168201915b5050505050908060070160009054906101000a900460ff16908060070160019054906101000a900473ffffffffffffffffffffffffffffffffffffffff16905089565b60606008805480602002602001604051908101604052809291908181526020016000905b8282101561239a57838290600052602060002090600802016040518061012001604052908160008201548152602001600182018054600181600116156101000203166002900480601f0160208091040260200160405190810160405280929190818152602001828054600181600116156101000203166002900480156121175780601f106120ec57610100808354040283529160200191612117565b820191906000526020600020905b8154815290600101906020018083116120fa57829003601f168201915b505050505081526020016002820154815260200160038201548152602001600482018054600181600116156101000203166002900480601f0160208091040260200160405190810160405280929190818152602001828054600181600116156101000203166002900480156121cd5780601f106121a2576101008083540402835291602001916121cd565b820191906000526020600020905b8154815290600101906020018083116121b057829003601f168201915b50505050508152602001600582018054600181600116156101000203166002900480601f01602080910402602001604051908101604052809291908181526020018280546001816001161561010002031660029004801561226f5780601f106122445761010080835404028352916020019161226f565b820191906000526020600020905b81548152906001019060200180831161225257829003601f168201915b50505050508152602001600682018054600181600116156101000203166002900480601f0160208091040260200160405190810160405280929190818152602001828054600181600116156101000203166002900480156123115780601f106122e657610100808354040283529160200191612311565b820191906000526020600020905b8154815290600101906020018083116122f457829003601f168201915b505050505081526020016007820160009054906101000a900460ff161515151581526020016007820160019054906101000a900473ffffffffffffffffffffffffffffffffffffffff1673ffffffffffffffffffffffffffffffffffffffff1673ffffffffffffffffffffffffffffffffffffffff168152505081526020019060010190612050565b50505050905090565b60076020528060005260406000206000915054906101000a900460ff1681565b600981815481106123d057fe5b906000526020600020016000915090505481565b606080600b8054905060405190808252806020026020018201604052801561242657816020015b612413614811565b81526020019060019003908161240b5790505b5090506000600190505b600b80549050811161280c5761245c600c60008381526020019081526020016000206000015485613abf565b156127dd57600c60008281526020019081526020016000206040518061012001604052908160008201548152602001600182018054600181600116156101000203166002900480601f0160208091040260200160405190810160405280929190818152602001828054600181600116156101000203166002900480156125235780601f106124f857610100808354040283529160200191612523565b820191906000526020600020905b81548152906001019060200180831161250657829003601f168201915b505050505081526020016002820154815260200160038201548152602001600482018054600181600116156101000203166002900480601f0160208091040260200160405190810160405280929190818152602001828054600181600116156101000203166002900480156125d95780601f106125ae576101008083540402835291602001916125d9565b820191906000526020600020905b8154815290600101906020018083116125bc57829003601f168201915b50505050508152602001600582018054600181600116156101000203166002900480601f01602080910402602001604051908101604052809291908181526020018280546001816001161561010002031660029004801561267b5780601f106126505761010080835404028352916020019161267b565b820191906000526020600020905b81548152906001019060200180831161265e57829003601f168201915b50505050508152602001600682018054600181600116156101000203166002900480601f01602080910402602001604051908101604052809291908181526020018280546001816001161561010002031660029004801561271d5780601f106126f25761010080835404028352916020019161271d565b820191906000526020600020905b81548152906001019060200180831161270057829003601f168201915b5050505050815260200160078201548152602001600882018054806020026020016040519081016040528092919081815260200182805480156127b557602002820191906000526020600020905b8160009054906101000a900473ffffffffffffffffffffffffffffffffffffffff1673ffffffffffffffffffffffffffffffffffffffff168152602001906001019080831161276b575b5050505050815250508260018303815181106127cd57fe5b60200260200101819052506127ff565b8160018203815181106127ec57fe5b602002602001016127fb614811565b8152505b8080600101915050612430565b5080915050919050565b60055481565b6000336000600181111561282c57fe5b600760008373ffffffffffffffffffffffffffffffffffffffff1673ffffffffffffffffffffffffffffffffffffffff16815260200190815260200160002060009054906101000a900460ff16600181111561288457fe5b146128c4576040517f08c379a00000000000000000000000000000000000000000000000000000000081526004016128bb906158f4565b60405180910390fd5b600091506000600b8054905090506128e18b8b8b8b8b8b8b610dff565b80600b8054905011156129f857600b8054905090506000600c6000838152602001908152602001600020600001549050600560008154809291906001019190505550600554600e60008773ffffffffffffffffffffffffffffffffffffffff1673ffffffffffffffffffffffffffffffffffffffff1681526020019081526020016000206000018190555080600e60008773ffffffffffffffffffffffffffffffffffffffff1673ffffffffffffffffffffffffffffffffffffffff168152602001908152602001600020600101600083815260200190815260200160002081905550600d600554908060018154018082558091505090600182039060005260206000200160009091929091909150555060019350505b829250505098975050505050505050565b60045481565b33600180811115612a1c57fe5b600760008373ffffffffffffffffffffffffffffffffffffffff1673ffffffffffffffffffffffffffffffffffffffff16815260200190815260200160002060009054906101000a900460ff166001811115612a7457fe5b1480612ae2575060006001811115612a8857fe5b600760008373ffffffffffffffffffffffffffffffffffffffff1673ffffffffffffffffffffffffffffffffffffffff16815260200190815260200160002060009054906101000a900460ff166001811115612ae057fe5b145b15612c7c57600073ffffffffffffffffffffffffffffffffffffffff168373ffffffffffffffffffffffffffffffffffffffff161415612b57576040517f08c379a0000000000000000000000000000000000000000000000000000000008152600401612b4e906158d4565b60405180910390fd5b60008211612b9a576040517f08c379a0000000000000000000000000000000000000000000000000000000008152600401612b9190615914565b60405180910390fd5b600360008154809291906001019190505550600354600a60008573ffffffffffffffffffffffffffffffffffffffff1673ffffffffffffffffffffffffffffffffffffffff1681526020019081526020016000206000018190555081600a60008573ffffffffffffffffffffffffffffffffffffffff1673ffffffffffffffffffffffffffffffffffffffff168152602001908152602001600020600101600084815260200190815260200160002081905550600960035490806001815401808255809150509060018203906000526020600020016000909192909190915055505b505050565b600b8181548110612c8e57fe5b906000526020600020016000915090505481565b600080600090505b600180549050811015612d39578273ffffffffffffffffffffffffffffffffffffffff1660018281548110612cdb57fe5b9060005260206000200160009054906101000a900473ffffffffffffffffffffffffffffffffffffffff1673ffffffffffffffffffffffffffffffffffffffff161415612d2c576001915050612d3f565b8080600101915050612caa565b50600090505b919050565b60006060600080905060606040518060200160405280600081525090506000809050600180549050811015612f045760006001811115612d8057fe5b600760008873ffffffffffffffffffffffffffffffffffffffff1673ffffffffffffffffffffffffffffffffffffffff16815260200190815260200160002060009054906101000a900460ff166001811115612dd857fe5b1415612e1e576040518060400160405280600681526020017f446f63746f7200000000000000000000000000000000000000000000000000008152509150859250612f04565b600180811115612e2a57fe5b600760008873ffffffffffffffffffffffffffffffffffffffff1673ffffffffffffffffffffffffffffffffffffffff16815260200190815260200160002060009054906101000a900460ff166001811115612e8257fe5b1415612ec8576040518060400160405280600781526020017f50617469656e74000000000000000000000000000000000000000000000000008152509150859250612f04565b6040518060400160405280601181526020017f4d65646963616c20417373697374616e7400000000000000000000000000000081525091508592505b508181935093505050915091565b60018181548110612f1f57fe5b906000526020600020016000915054906101000a900473ffffffffffffffffffffffffffffffffffffffff1681565b606080600b80549050604051908082528060200260200182016040528015612f9057816020015b612f7d614811565b815260200190600190039081612f755790505b5090506000600190505b600b80549050811161332a57600c60008281526020019081526020016000206040518061012001604052908160008201548152602001600182018054600181600116156101000203166002900480601f0160208091040260200160405190810160405280929190818152602001828054600181600116156101000203166002900480156130685780601f1061303d57610100808354040283529160200191613068565b820191906000526020600020905b81548152906001019060200180831161304b57829003601f168201915b505050505081526020016002820154815260200160038201548152602001600482018054600181600116156101000203166002900480601f01602080910402602001604051908101604052809291908181526020018280546001816001161561010002031660029004801561311e5780601f106130f35761010080835404028352916020019161311e565b820191906000526020600020905b81548152906001019060200180831161310157829003601f168201915b50505050508152602001600582018054600181600116156101000203166002900480601f0160208091040260200160405190810160405280929190818152602001828054600181600116156101000203166002900480156131c05780601f10613195576101008083540402835291602001916131c0565b820191906000526020600020905b8154815290600101906020018083116131a357829003601f168201915b50505050508152602001600682018054600181600116156101000203166002900480601f0160208091040260200160405190810160405280929190818152602001828054600181600116156101000203166002900480156132625780601f1061323757610100808354040283529160200191613262565b820191906000526020600020905b81548152906001019060200180831161324557829003601f168201915b5050505050815260200160078201548152602001600882018054806020026020016040519081016040528092919081815260200182805480156132fa57602002820191906000526020600020905b8160009054906101000a900473ffffffffffffffffffffffffffffffffffffffff1673ffffffffffffffffffffffffffffffffffffffff16815260200190600101908083116132b0575b50505050508152505082600183038151811061331257fe5b60200260200101819052508080600101915050612f9a565b508091505090565b60608060088054905060405190808252806020026020018201604052801561337457816020015b613361614657565b8152602001906001900390816133595790505b50905060008090505b600880549050811015613472576133e9600a60008673ffffffffffffffffffffffffffffffffffffffff1673ffffffffffffffffffffffffffffffffffffffff168152602001908152602001600020600101600060018401815260200190815260200160002054611711565b8282815181106133f557fe5b6020026020010181905250600182828151811061340e57fe5b6020026020010151600001511080613441575060088054905082828151811061343357fe5b602002602001015160000151115b156134655781818151811061345257fe5b60200260200101613461614657565b8152505b808060010191505061337d565b5080915050919050565b60608061348884611263565b9050606081516040519080825280602002602001820160405280156134c757816020015b6134b4614811565b8152602001906001900390816134ac5790505b5090506000600190505b82518111613561576134fa8382815181106134e857fe5b60200260200101516000015186613abf565b156135325782818151811061350b57fe5b602002602001015182600183038151811061352257fe5b6020026020010181905250613554565b81600182038151811061354157fe5b60200260200101613550614811565b8152505b80806001019150506134d1565b50809250505092915050565b6000600e60003373ffffffffffffffffffffffffffffffffffffffff1673ffffffffffffffffffffffffffffffffffffffff16815260200190815260200160002060010160008381526020019081526020016000205490506135cd6146bb565b600c60008381526020019081526020016000206040518061012001604052908160008201548152602001600182018054600181600116156101000203166002900480601f01602080910402602001604051908101604052809291908181526020018280546001816001161561010002031660029004801561368f5780601f106136645761010080835404028352916020019161368f565b820191906000526020600020905b81548152906001019060200180831161367257829003601f168201915b505050505081526020016002820154815260200160038201548152602001600482018054600181600116156101000203166002900480601f0160208091040260200160405190810160405280929190818152602001828054600181600116156101000203166002900480156137455780601f1061371a57610100808354040283529160200191613745565b820191906000526020600020905b81548152906001019060200180831161372857829003601f168201915b50505050508152602001600582018054600181600116156101000203166002900480601f0160208091040260200160405190810160405280929190818152602001828054600181600116156101000203166002900480156137e75780601f106137bc576101008083540402835291602001916137e7565b820191906000526020600020905b8154815290600101906020018083116137ca57829003601f168201915b50505050508152602001600682018054600181600116156101000203166002900480601f0160208091040260200160405190810160405280929190818152602001828054600181600116156101000203166002900480156138895780601f1061385e57610100808354040283529160200191613889565b820191906000526020600020905b81548152906001019060200180831161386c57829003601f168201915b50505050508152602001600782015481526020016008820180548060200260200160405190810160405280929190818152602001828054801561392157602002820191906000526020600020905b8160009054906101000a900473ffffffffffffffffffffffffffffffffffffffff1673ffffffffffffffffffffffffffffffffffffffff16815260200190600101908083116138d7575b5050505050815250509050600081600001511180156139435750818160000151145b613982576040517f08c379a0000000000000000000000000000000000000000000000000000000008152600401613979906158f4565b60405180910390fd5b8061010001516006908051906020019061399d9291906148c1565b5060068490806001815401808255809150509060018203906000526020600020016000909192909190916101000a81548173ffffffffffffffffffffffffffffffffffffffff021916908373ffffffffffffffffffffffffffffffffffffffff160217905550506006805480602002602001604051908101604052809291908181526020018280548015613a8657602002820191906000526020600020905b8160009054906101000a900473ffffffffffffffffffffffffffffffffffffffff1673ffffffffffffffffffffffffffffffffffffffff1681526020019060010190808311613a3c575b505050505081610100018190525050505050565b6000809054906101000a900473ffffffffffffffffffffffffffffffffffffffff1681565b6000613ac96146bb565b600c60008581526020019081526020016000206040518061012001604052908160008201548152602001600182018054600181600116156101000203166002900480601f016020809104026020016040519081016040528092919081815260200182805460018160011615610100020316600290048015613b8b5780601f10613b6057610100808354040283529160200191613b8b565b820191906000526020600020905b815481529060010190602001808311613b6e57829003601f168201915b505050505081526020016002820154815260200160038201548152602001600482018054600181600116156101000203166002900480601f016020809104026020016040519081016040528092919081815260200182805460018160011615610100020316600290048015613c415780601f10613c1657610100808354040283529160200191613c41565b820191906000526020600020905b815481529060010190602001808311613c2457829003601f168201915b50505050508152602001600582018054600181600116156101000203166002900480601f016020809104026020016040519081016040528092919081815260200182805460018160011615610100020316600290048015613ce35780601f10613cb857610100808354040283529160200191613ce3565b820191906000526020600020905b815481529060010190602001808311613cc657829003601f168201915b50505050508152602001600682018054600181600116156101000203166002900480601f016020809104026020016040519081016040528092919081815260200182805460018160011615610100020316600290048015613d855780601f10613d5a57610100808354040283529160200191613d85565b820191906000526020600020905b815481529060010190602001808311613d6857829003601f168201915b505050505081526020016007820154815260200160088201805480602002602001604051908101604052809291908181526020018280548015613e1d57602002820191906000526020600020905b8160009054906101000a900473ffffffffffffffffffffffffffffffffffffffff1673ffffffffffffffffffffffffffffffffffffffff1681526020019060010190808311613dd3575b505050505081525050905060008090505b81610100015151811015613ea0578373ffffffffffffffffffffffffffffffffffffffff168261010001518281518110613e6457fe5b602002602001015173ffffffffffffffffffffffffffffffffffffffff161415613e9357600192505050613ea7565b8080600101915050613e2e565b5060009150505b92915050565b600e6020528060005260406000206000915090508060000154905081565b613ed36146bb565b6000600190505b600b8054905081116142765782600c600083815260200190815260200160002060000154141561426957600c60008281526020019081526020016000206040518061012001604052908160008201548152602001600182018054600181600116156101000203166002900480601f016020809104026020016040519081016040528092919081815260200182805460018160011615610100020316600290048015613fc65780601f10613f9b57610100808354040283529160200191613fc6565b820191906000526020600020905b815481529060010190602001808311613fa957829003601f168201915b505050505081526020016002820154815260200160038201548152602001600482018054600181600116156101000203166002900480601f01602080910402602001604051908101604052809291908181526020018280546001816001161561010002031660029004801561407c5780601f106140515761010080835404028352916020019161407c565b820191906000526020600020905b81548152906001019060200180831161405f57829003601f168201915b50505050508152602001600582018054600181600116156101000203166002900480601f01602080910402602001604051908101604052809291908181526020018280546001816001161561010002031660029004801561411e5780601f106140f35761010080835404028352916020019161411e565b820191906000526020600020905b81548152906001019060200180831161410157829003601f168201915b50505050508152602001600682018054600181600116156101000203166002900480601f0160208091040260200160405190810160405280929190818152602001828054600181600116156101000203166002900480156141c05780601f10614195576101008083540402835291602001916141c0565b820191906000526020600020905b8154815290600101906020018083116141a357829003601f168201915b50505050508152602001600782015481526020016008820180548060200260200160405190810160405280929190818152602001828054801561425857602002820191906000526020600020905b8160009054906101000a900473ffffffffffffffffffffffffffffffffffffffff1673ffffffffffffffffffffffffffffffffffffffff168152602001906001019080831161420e575b505050505081525050915050614278565b8080600101915050613eda565b505b919050565b600d818154811061428a57fe5b906000526020600020016000915090505481565b6060806142aa83613332565b9050606081516040519080825280602002602001820160405280156142e957816020015b6142d6614657565b8152602001906001900390816142ce5790505b50905060008090505b82518110156143a3578573ffffffffffffffffffffffffffffffffffffffff1683828151811061431e57fe5b6020026020010151610100015173ffffffffffffffffffffffffffffffffffffffff1614156143775782818151811061435357fe5b602002602001015182828151811061436757fe5b6020026020010181905250614396565b81818151811061438357fe5b60200260200101614392614657565b8152505b80806001019150506142f2565b50809250505092915050565b600c602052806000526040600020600091509050806000015490806001018054600181600116156101000203166002900480601f0160208091040260200160405190810160405280929190818152602001828054600181600116156101000203166002900480156144615780601f1061443657610100808354040283529160200191614461565b820191906000526020600020905b81548152906001019060200180831161444457829003601f168201915b505050505090806002015490806003015490806004018054600181600116156101000203166002900480601f01602080910402602001604051908101604052809291908181526020018280546001816001161561010002031660029004801561450b5780601f106144e05761010080835404028352916020019161450b565b820191906000526020600020905b8154815290600101906020018083116144ee57829003601f168201915b505050505090806005018054600181600116156101000203166002900480601f0160208091040260200160405190810160405280929190818152602001828054600181600116156101000203166002900480156145a95780601f1061457e576101008083540402835291602001916145a9565b820191906000526020600020905b81548152906001019060200180831161458c57829003601f168201915b505050505090806006018054600181600116156101000203166002900480601f0160208091040260200160405190810160405280929190818152602001828054600181600116156101000203166002900480156146475780601f1061461c57610100808354040283529160200191614647565b820191906000526020600020905b81548152906001019060200180831161462a57829003601f168201915b5050505050908060070154905088565b60405180610120016040528060008152602001606081526020016000815260200160008152602001606081526020016060815260200160608152602001600015158152602001600073ffffffffffffffffffffffffffffffffffffffff1681525090565b6040518061012001604052806000815260200160608152602001600081526020016000815260200160608152602001606081526020016060815260200160008152602001606081525090565b828054600181600116156101000203166002900490600052602060002090601f016020900481019282601f1061474857805160ff1916838001178555614776565b82800160010185558215614776579182015b8281111561477557825182559160200191906001019061475a565b5b509050614783919061494b565b5090565b828054828255906000526020600020908101928215614800579160200282015b828111156147ff5782518260006101000a81548173ffffffffffffffffffffffffffffffffffffffff021916908373ffffffffffffffffffffffffffffffffffffffff160217905550916020019190600101906147a7565b5b50905061480d9190614970565b5090565b6040518061012001604052806000815260200160608152602001600081526020016000815260200160608152602001606081526020016060815260200160008152602001606081525090565b60405180610120016040528060008152602001606081526020016000815260200160008152602001606081526020016060815260200160608152602001600015158152602001600073ffffffffffffffffffffffffffffffffffffffff1681525090565b82805482825590600052602060002090810192821561493a579160200282015b828111156149395782518260006101000a81548173ffffffffffffffffffffffffffffffffffffffff021916908373ffffffffffffffffffffffffffffffffffffffff160217905550916020019190600101906148e1565b5b5090506149479190614970565b5090565b61496d91905b80821115614969576000816000905550600101614951565b5090565b90565b6149b091905b808211156149ac57600081816101000a81549073ffffffffffffffffffffffffffffffffffffffff021916905550600101614976565b5090565b90565b6000813590506149c281615d42565b92915050565b6000813590506149d781615d59565b92915050565b6000813590506149ec81615d70565b92915050565b600082601f830112614a0357600080fd5b8135614a16614a1182615b03565b615ad6565b91508082526020830160208301858383011115614a3257600080fd5b614a3d838284615ce2565b50505092915050565b600081359050614a5581615d80565b92915050565b600060208284031215614a6d57600080fd5b6000614a7b848285016149b3565b91505092915050565b60008060408385031215614a9757600080fd5b6000614aa5858286016149b3565b9250506020614ab6858286016149b3565b9150509250929050565b60008060408385031215614ad357600080fd5b6000614ae1858286016149b3565b9250506020614af2858286016149dd565b9150509250929050565b60008060408385031215614b0f57600080fd5b6000614b1d858286016149b3565b9250506020614b2e85828601614a46565b9150509250929050565b600080600080600080600080610100898b031215614b5557600080fd5b600089013567ffffffffffffffff811115614b6f57600080fd5b614b7b8b828c016149f2565b9850506020614b8c8b828c01614a46565b9750506040614b9d8b828c01614a46565b965050606089013567ffffffffffffffff811115614bba57600080fd5b614bc68b828c016149f2565b955050608089013567ffffffffffffffff811115614be357600080fd5b614bef8b828c016149f2565b94505060a089013567ffffffffffffffff811115614c0c57600080fd5b614c188b828c016149f2565b93505060c0614c298b828c016149c8565b92505060e0614c3a8b828c016149b3565b9150509295985092959890939650565b60008060008060008060008060006101208a8c031215614c6957600080fd5b60008a013567ffffffffffffffff811115614c8357600080fd5b614c8f8c828d016149f2565b9950506020614ca08c828d01614a46565b9850506040614cb18c828d01614a46565b97505060608a013567ffffffffffffffff811115614cce57600080fd5b614cda8c828d016149f2565b96505060808a013567ffffffffffffffff811115614cf757600080fd5b614d038c828d016149f2565b95505060a08a013567ffffffffffffffff811115614d2057600080fd5b614d2c8c828d016149f2565b94505060c0614d3d8c828d016149c8565b93505060e0614d4e8c828d016149b3565b925050610100614d608c828d016149b3565b9150509295985092959850929598565b600080600080600080600060e0888a031215614d8b57600080fd5b600088013567ffffffffffffffff811115614da557600080fd5b614db18a828b016149f2565b9750506020614dc28a828b01614a46565b9650506040614dd38a828b01614a46565b955050606088013567ffffffffffffffff811115614df057600080fd5b614dfc8a828b016149f2565b945050608088013567ffffffffffffffff811115614e1957600080fd5b614e258a828b016149f2565b93505060a088013567ffffffffffffffff811115614e4257600080fd5b614e4e8a828b016149f2565b92505060c0614e5f8a828b01614a46565b91505092959891949750929550565b600080600080600080600080610100898b031215614e8b57600080fd5b600089013567ffffffffffffffff811115614ea557600080fd5b614eb18b828c016149f2565b9850506020614ec28b828c01614a46565b9750506040614ed38b828c01614a46565b965050606089013567ffffffffffffffff811115614ef057600080fd5b614efc8b828c016149f2565b955050608089013567ffffffffffffffff811115614f1957600080fd5b614f258b828c016149f2565b94505060a089013567ffffffffffffffff811115614f4257600080fd5b614f4e8b828c016149f2565b93505060c0614f5f8b828c01614a46565b92505060e0614f708b828c016149b3565b9150509295985092959890939650565b600060208284031215614f9257600080fd5b6000614fa084828501614a46565b91505092915050565b60008060408385031215614fbc57600080fd5b6000614fca85828601614a46565b9250506020614fdb858286016149b3565b9150509250929050565b6000614ff18383615039565b60208301905092915050565b600061500983836152d8565b905092915050565b600061501d83836154fe565b905092915050565b600061503183836156b9565b905092915050565b61504281615c75565b82525050565b61505181615c75565b82525050565b600061506282615b7b565b61506c8185615c0f565b935061507783615b3c565b8060005b838110156150a857815161508f8882614fe5565b975061509a83615bca565b92505060018101905061507b565b5085935050505092915050565b60006150c082615b70565b6150ca8185615bfe565b93506150d583615b2f565b8060005b838110156151065781516150ed8882614fe5565b97506150f883615bbd565b9250506001810190506150d9565b5085935050505092915050565b600061511e82615b86565b6151288185615c20565b93508360208202850161513a85615b49565b8060005b8581101561517657848403895281516151578582614ffd565b945061516283615bd7565b925060208a0199505060018101905061513e565b50829750879550505050505092915050565b600061519382615b91565b61519d8185615c31565b9350836020820285016151af85615b56565b8060005b858110156151eb57848403895281516151cc8582615011565b94506151d783615be4565b925060208a019950506001810190506151b3565b50829750879550505050505092915050565b600061520882615b9c565b6152128185615c42565b93508360208202850161522485615b63565b8060005b8581101561526057848403895281516152418582615025565b945061524c83615bf1565b925060208a01995050600181019050615228565b50829750879550505050505092915050565b61527b81615c87565b82525050565b61528a81615c87565b82525050565b61529981615cd0565b82525050565b60006152aa82615bb2565b6152b48185615c64565b93506152c4818560208601615cf1565b6152cd81615d24565b840191505092915050565b60006152e382615ba7565b6152ed8185615c53565b93506152fd818560208601615cf1565b61530681615d24565b840191505092915050565b600061531c82615ba7565b6153268185615c64565b9350615336818560208601615cf1565b61533f81615d24565b840191505092915050565b6000615357601283615c64565b91507f416c7265616479207265676973746572656400000000000000000000000000006000830152602082019050919050565b6000615397601b83615c64565b91507f506c6561736520656e74657220646f63746f72206164647265737300000000006000830152602082019050919050565b60006153d7600083615c64565b9150600082019050919050565b60006153f1601f83615c64565b91507f506c6561736520656e746572206d65646963616c2070726f626c656d206964006000830152602082019050919050565b60006101208301600083015161543d600086018261579a565b506020830151848203602086015261545582826152d8565b915050604083015161546a604086018261579a565b50606083015161547d606086018261579a565b506080830151848203608086015261549582826152d8565b91505060a083015184820360a08601526154af82826152d8565b91505060c083015184820360c08601526154c982826152d8565b91505060e08301516154de60e0860182615272565b506101008301516154f3610100860182615039565b508091505092915050565b600061012083016000830151615517600086018261579a565b506020830151848203602086015261552f82826152d8565b9150506040830151615544604086018261579a565b506060830151615557606086018261579a565b506080830151848203608086015261556f82826152d8565b91505060a083015184820360a086015261558982826152d8565b91505060c083015184820360c08601526155a382826152d8565b91505060e08301516155b860e0860182615272565b506101008301516155cd610100860182615039565b508091505092915050565b6000610120830160008301516155f1600086018261579a565b506020830151848203602086015261560982826152d8565b915050604083015161561e604086018261579a565b506060830151615631606086018261579a565b506080830151848203608086015261564982826152d8565b91505060a083015184820360a086015261566382826152d8565b91505060c083015184820360c086015261567d82826152d8565b91505060e083015161569260e086018261579a565b506101008301518482036101008601526156ac82826150b5565b9150508091505092915050565b6000610120830160008301516156d2600086018261579a565b50602083015184820360208601526156ea82826152d8565b91505060408301516156ff604086018261579a565b506060830151615712606086018261579a565b506080830151848203608086015261572a82826152d8565b91505060a083015184820360a086015261574482826152d8565b91505060c083015184820360c086015261575e82826152d8565b91505060e083015161577360e086018261579a565b5061010083015184820361010086015261578d82826150b5565b9150508091505092915050565b6157a381615cc6565b82525050565b6157b281615cc6565b82525050565b60006020820190506157cd6000830184615048565b92915050565b60006040820190506157e86000830185615048565b81810360208301526157fa818461529f565b90509392505050565b6000604082019050818103600083015261581d8185615057565b905081810360208301526158318184615113565b90509392505050565b600060208201905081810360008301526158548184615188565b905092915050565b6000602082019050818103600083015261587681846151fd565b905092915050565b60006020820190506158936000830184615281565b92915050565b60006020820190506158ae6000830184615290565b92915050565b600060208201905081810360008301526158cd8161534a565b9050919050565b600060208201905081810360008301526158ed8161538a565b9050919050565b6000602082019050818103600083015261590d816153ca565b9050919050565b6000602082019050818103600083015261592d816153e4565b9050919050565b6000602082019050818103600083015261594e8184615424565b905092915050565b6000602082019050818103600083015261597081846155d8565b905092915050565b600060208201905061598d60008301846157a9565b92915050565b6000610120820190506159a9600083018c6157a9565b81810360208301526159bb818b615311565b90506159ca604083018a6157a9565b6159d760608301896157a9565b81810360808301526159e98188615311565b905081810360a08301526159fd8187615311565b905081810360c0830152615a118186615311565b9050615a2060e0830185615281565b615a2e610100830184615048565b9a9950505050505050505050565b600061010082019050615a52600083018b6157a9565b8181036020830152615a64818a615311565b9050615a7360408301896157a9565b615a8060608301886157a9565b8181036080830152615a928187615311565b905081810360a0830152615aa68186615311565b905081810360c0830152615aba8185615311565b9050615ac960e08301846157a9565b9998505050505050505050565b6000604051905081810181811067ffffffffffffffff82111715615af957600080fd5b8060405250919050565b600067ffffffffffffffff821115615b1a57600080fd5b601f19601f8301169050602081019050919050565b6000602082019050919050565b6000602082019050919050565b6000602082019050919050565b6000602082019050919050565b6000602082019050919050565b600081519050919050565b600081519050919050565b600081519050919050565b600081519050919050565b600081519050919050565b600081519050919050565b600081519050919050565b6000602082019050919050565b6000602082019050919050565b6000602082019050919050565b6000602082019050919050565b6000602082019050919050565b600082825260208201905092915050565b600082825260208201905092915050565b600082825260208201905092915050565b600082825260208201905092915050565b600082825260208201905092915050565b600082825260208201905092915050565b600082825260208201905092915050565b6000615c8082615ca6565b9050919050565b60008115159050919050565b6000819050615ca182615d35565b919050565b600073ffffffffffffffffffffffffffffffffffffffff82169050919050565b6000819050919050565b6000615cdb82615c93565b9050919050565b82818337600083830152505050565b60005b83811015615d0f578082015181840152602081019050615cf4565b83811115615d1e576000848401525b50505050565b6000601f19601f8301169050919050565b60028110615d3f57fe5b50565b615d4b81615c75565b8114615d5657600080fd5b50565b615d6281615c87565b8114615d6d57600080fd5b50565b60028110615d7d57600080fd5b50565b615d8981615cc6565b8114615d9457600080fd5b5056fea265627a7a723058200140a45032922dcc02fda57cd0bfdc7bb92ddcce64f53f2d8fe4c4cd61c0d17f6c6578706572696d656e74616cf50037",
  "source": "pragma solidity >=0.4.21 <0.6.0;\n\npragma experimental ABIEncoderV2;\n\n/** @title MedicalRecord. */\ncontract MedicalRecord {\n  // State variables\n  address public contractOwner;\n  address[] public candidateList;\n  uint public medicalProblemCount = 0;\n  uint public patientIssueCount = 0;\n  uint public medicationCount = 0;\n  uint public patientMedicationCount = 0;\n  address[] doctorAddresses;\n\n  enum Roles { DOCTOR, PATIENT }\n\n  // Store roles of each candidate to their corresponding addresses\n  mapping(address => Roles) public candidateRoles;\n\n  // Store accesses that is/are controlled by roles of each candidate to their corresponding addresses\n  // mapping(address => bool) public candidateCanAccess;\n\n  struct MedicalProblem {\n    uint id;\n    string title;\n    uint beginDate;\n    uint endDate;\n    string occurance;\n    string severity;\n    string referredBy;\n    bool isAllergyType;\n    address patientAddress;\n  }\n  MedicalProblem[] public medicalProblems;\n\n  struct patientIssue {\n    uint id;\n    mapping(uint => uint) medicalProblemIds; // This patient can have multiple medicalProblems\n  }\n  uint[] public patientIssueIndexes;\n  mapping(address => patientIssue) public patientIssues;\n\n  struct Medication {\n    uint id;\n    string name;\n    uint beginDate;\n    uint endDate;\n    string dosage;\n    string referredBy;\n    string hospName;\n    uint medicalProblemId;\n    address[] candidateAddress; // Can share to multiple doctors by single patientMedication\n  }\n  uint[] public medicationIndexes;\n  mapping(uint => Medication) public medications;\n\n  struct patientMedication {\n    uint id;\n    mapping(uint => uint) medicationIds; // This patient can have multiple medications\n  }\n  uint[] public patientMedicationIndexes;\n  mapping(address => patientMedication) public patientMedications;\n\n  constructor() public {\n    contractOwner = msg.sender; // Set the contract owner address\n  }\n\n  modifier onlyOwner {\n    require(msg.sender == contractOwner, '');\n    _;\n  }\n\n  modifier onlyDoctor(address _address) {\n    require(candidateRoles[_address] == Roles.DOCTOR, '');\n    _;\n  }\n\n  modifier onlyPatient(address _address) {\n    require(candidateRoles[_address] == Roles.PATIENT, '');\n    _;\n  }\n\n  modifier onlyPatientOrDoctor(address _address) {\n    if(candidateRoles[_address] == Roles.PATIENT || candidateRoles[_address] == Roles.DOCTOR) {\n      _;\n    }\n  }\n\n  // All candidates have to go through this registration process\n  // And only contract owner can register the candidate\n  function registerCandidate(address _candidate, Roles _candidateRoles) public onlyOwner {\n    require(!validateCandidate(_candidate), 'Already registered');\n    candidateList.push(_candidate);\n    candidateRoles[_candidate] = _candidateRoles; // Set role for this candidate\n  }\n\n  // Check if this candidate is registered or not before allowing resources access.\n  function validateCandidate(address _candidate) public view returns (bool) {\n    for(uint i = 0; i < candidateList.length; i++) {\n      if(candidateList[i] == _candidate) {\n        return true;\n      }\n    }\n    return false;\n  }\n\n  function getCandidateByAddress(address _candidate) public view returns(address, string memory) {\n    address _candidateAddress = address(0); // empty address\n    string memory _candidateRole = \"\";\n    for(uint i = 0; i < candidateList.length; i++) {\n      if(candidateRoles[_candidate] == Roles.DOCTOR) {\n        _candidateRole = \"Doctor\";\n        _candidateAddress = _candidate;\n        break;\n      } else if(candidateRoles[_candidate] == Roles.PATIENT) {\n          _candidateRole = \"Patient\";\n          _candidateAddress = _candidate;\n          break;\n      } else{\n          _candidateRole = \"Medical Assistant\";\n          _candidateAddress = _candidate;\n          break;\n      }\n    }\n    return(_candidateAddress, _candidateRole);\n  }\n\n  function getAllCandidates() public view returns(address[] memory, string[] memory) {\n    address[] memory _candidateAddresses = new address[](candidateList.length);\n    string[] memory _candidateRoles = new string[](candidateList.length);\n    for(uint i = 0; i < candidateList.length; i++) {\n      if(candidateRoles[candidateList[i]] == Roles.DOCTOR) {\n        _candidateRoles[i] = \"Doctor\";\n      } else if(candidateRoles[candidateList[i]] == Roles.PATIENT) {\n          _candidateRoles[i] = \"Patient\";\n      } else {\n          _candidateRoles[i] = \"Medical Assistant\";\n      }\n      _candidateAddresses[i] = candidateList[i];\n    }\n    return(_candidateAddresses, _candidateRoles);\n  }\n\n//   function getMsgSender() public view returns(address _msgSender) {\n//     _msgSender = msg.sender;\n//   }\n//this makes no sense;\n\n    \n//   function getAllMedicalProblems() public view returns(\n//       uint[] memory, string[] memory, uint[] memory, uint[] memory, string[] memory, string[] memory, string[] memory, bool[] memory, address[] memory) {\n//       uint[] memory _id = new uint[](medicalProblems.length);\n//       uint[] memory _beginDate = new uint[](medicalProblems.length);\n//       uint[] memory _endDate = new uint[](medicalProblems.length);\n//       string[] memory _title = new string[](medicalProblems.length);\n//       string[] memory _occurance = new string[](medicalProblems.length);\n//       string[] memory _severity = new string[](medicalProblems.length);\n//       string[] memory _referredBy = new string[](medicalProblems.length);\n//       bool[] memory _isAllergyType = new bool[](medicalProblems.length);\n//       address[] memory _patientAddress = new address[](medicalProblems.length);\n      \n//       for(uint i = 0; i < medicalProblems.length; i++) {\n//           MedicalProblem storage _medicalProblem = medicalProblems[i];\n//           _id[i] = _medicalProblem.id;\n//           _beginDate[i] = _medicalProblem.beginDate;\n//           _endDate[i] = _medicalProblem.endDate;\n//           _title[i] = _medicalProblem.title;\n//           _occurance[i] = _medicalProblem.occurance;\n//           _severity[i] = _medicalProblem.severity;\n//           _referredBy[i] = _medicalProblem.referredBy;\n//           _isAllergyType[i] = _medicalProblem.isAllergyType;\n//           _patientAddress[i] = _medicalProblem.patientAddress;\n//       }\n//       return (_id, _title, _beginDate, _endDate, _occurance, _severity, _referredBy, _isAllergyType, _patientAddress);\n//   }\n\n  function getMedicalProblemById(uint _medicalProblemId) public view returns(MedicalProblem memory) {\n    for(uint i = 0; i < medicalProblems.length; i++) {\n      if(medicalProblems[i].id == _medicalProblemId) return medicalProblems[i];\n    }\n  }\n\n  // Call by patient\n  function getMedicalProblemsByAddress(address _patientAddress) public view returns(MedicalProblem[] memory) {\n    MedicalProblem[] memory _medicalProblems = new MedicalProblem[](medicalProblems.length);\n    for(uint i = 0; i < medicalProblems.length; i++) {\n      if(medicalProblems[i].patientAddress == _patientAddress) {\n        _medicalProblems[i] = medicalProblems[i];\n      }\n      else delete _medicalProblems[i]; // Remove empty elements from MedicalProblem array;\n    }\n    return _medicalProblems;\n  }\n\n  function getAllMedicalProblems() public view returns(MedicalProblem[] memory) {\n    return medicalProblems;\n  }\n\n  function getMedicationById(uint _medicationId) public view returns(Medication memory) {\n    for(uint i = 1; i <= medicationIndexes.length; i++) {\n      if(medications[i].id == _medicationId) return medications[i];\n    }\n  }\n\n  // Call by provider\n  function getAllMedications() public view returns(Medication[] memory) {\n    Medication[] memory _medications = new Medication[](medicationIndexes.length);\n\n    for(uint i = 1; i <= medicationIndexes.length; i++) {\n      _medications[i-1] = medications[i];\n    }\n    return _medications;\n  }\n\n  // Call by patient\n  function getMedicationsByAddress(address _patientAddress) public view returns(Medication[] memory) {\n    Medication[] memory _medications = new Medication[](medicationIndexes.length);\n    for(uint i = 1; i <= medicationIndexes.length; i++) {\n      _medications[i-1] = getMedicationById(patientMedications[_patientAddress].medicationIds[i]);\n      if(_medications[i-1].id < 1 || _medications[i-1].id > medicationIndexes.length) {\n        delete _medications[i-1]; // Remove empty elements from Medication array\n      }\n    }\n    return _medications;\n  }\n\n  // Call by doctor\n  function getPatientMedicationsByAddress(address _candidateAddress) public view returns(Medication[] memory) {\n    Medication[] memory _medications = new Medication[](medicationIndexes.length);\n    for(uint i = 1; i <= medicationIndexes.length; i++) {\n      if(canViewMedicationByCandidate(medications[i].id, _candidateAddress)) {\n        _medications[i-1] = medications[i];\n      }\n      else delete _medications[i-1]; // Remove empty elements from Medication array;\n    }\n    return _medications;\n  }\n\n  // Check if this \"_candidateAddress\" can view medication \"_medicationId\" medication\n  function canViewMedicationByCandidate(uint _medicationId, address _candidateAddress) public view returns (bool) {\n    Medication memory _medication = medications[_medicationId];\n    for(uint i = 0; i < _medication.candidateAddress.length; i++) {\n      if(_medication.candidateAddress[i] == _candidateAddress) return true;\n    }\n    return false;\n  }\n\n  // Call by doctor\n  function getPatientMedicationsByAddress(address _patientAddress, address _candidateAddress) public view returns(Medication[] memory) {\n    Medication[] memory _medications = getMedicationsByAddress(_patientAddress);\n    Medication[] memory __medications = new Medication[](_medications.length);\n\n    for(uint i = 1; i <= _medications.length; i++) {\n      if(canViewMedicationByCandidate(_medications[i].id, _candidateAddress)) {\n        __medications[i-1] = _medications[i];\n      }\n      else delete __medications[i-1]; // Remove empty elements from Medication array;\n    }\n    return __medications;\n  }\n\n  // Call by doctor\n  function getPatientMedicalProblemsByAddress(address _candidateAddress) public view returns(MedicalProblem[] memory) {\n    MedicalProblem[] memory _medicalProblems = new MedicalProblem[](medicalProblems.length);\n\n    for(uint i = 0; i < medicalProblems.length; i++) {\n      _medicalProblems[i] = getMedicalProblemById(patientIssues[_candidateAddress].medicalProblemIds[i+1]);\n      if(_medicalProblems[i].id < 1 || _medicalProblems[i].id > medicalProblems.length) {\n        delete _medicalProblems[i]; // Remove empty elements from Medication array\n      }\n    }\n    return _medicalProblems;\n  }\n\n  // Call by doctor\n  function getPatientMedicalProblemsByAddress(address _patientAddress, address _candidateAddress) public view returns(MedicalProblem[] memory) {\n    MedicalProblem[] memory _medicalProblems = getPatientMedicalProblemsByAddress(_candidateAddress);\n    MedicalProblem[] memory __medicalProblems = new MedicalProblem[](_medicalProblems.length);\n\n    for(uint i = 0; i < _medicalProblems.length; i++) {\n      if(_medicalProblems[i].patientAddress == _patientAddress) {\n        __medicalProblems[i] = _medicalProblems[i];\n      }\n      else delete __medicalProblems[i]; // Remove empty elements from MedicalProblem array;\n    }\n    return __medicalProblems;\n  }\n\n   /**@dev Creates a medical issue by patient\n    * @param _title {string} address of doctor for whom this issue to examine\n    * @param _beginDate {uint} begin date of issue\n    * @param _endDate {uint} end date of issue\n    * @param _occurance {string} how many times this issue occurrs\n    * @param _severity {string} severity of this issue\n    * @param _referredBy {string} person who refers this issue\n    * @param _isAllergyType {bool} is this issue allergy or not\n    * @param _patientAddress {address} address of patient for whom this issue belongs\n    */\n  function createMedicalProblem(\n    string memory _title,\n    uint _beginDate,\n    uint _endDate,\n    string memory _occurance,\n    string memory _severity,\n    string memory _referredBy,\n    bool _isAllergyType,\n    address _patientAddress) public onlyPatientOrDoctor(msg.sender) {\n    // Require a valid doctor to create medication\n    //require(_candidateRoles == Roles.PATIENT, 'Only patient can submit medical issue');\n    // Increment medicalProblem count\n    medicalProblemCount ++;\n    // Create the medical problem\n    medicalProblems.push(MedicalProblem(\n      medicalProblemCount,\n      _title,\n      _beginDate,\n      _endDate,\n      _occurance,\n      _severity,\n      _referredBy,\n      _isAllergyType,\n      _patientAddress\n    ));\n  }\n\n   /**@dev Creates a patient issue submitted by a patient.\n    * @param _doctorAddress {address} address of doctor for whom this issue to examine\n    * @param _medicalProblemId {uint} medical problem id\n    */\n  function createPatientIssue(\n    address _doctorAddress,\n    uint _medicalProblemId) public onlyPatientOrDoctor(msg.sender) {\n    // Require a valid doctor address to submit patient issue\n    require(_doctorAddress != address(0), 'Please enter doctor address');\n\n     // Medical problem id is must require to create patient issue\n    require(_medicalProblemId > 0, 'Please enter medical problem id');\n\n    // Increment medicalProblem count\n    patientIssueCount ++;\n\n    patientIssues[_doctorAddress].id = patientIssueCount;\n    patientIssues[_doctorAddress].medicalProblemIds[_medicalProblemId] = _medicalProblemId;\n\n    // Save index\n    patientIssueIndexes.push(patientIssueCount);\n  }\n\n  function submitIssue(\n    string memory _title,\n    uint _beginDate,\n    uint _endDate,\n    string memory _occurance,\n    string memory _severity,\n    string memory _referredBy,\n    bool _isAllergyType,\n    address _patientAddress,\n    address _doctorAddress) public onlyPatientOrDoctor(msg.sender) returns(bool) {\n      uint lastMedicalProblemCount = medicalProblems.length;\n      createMedicalProblem(\n        _title,\n        _beginDate,\n        _endDate,\n        _occurance,\n        _severity,\n        _referredBy,\n        _isAllergyType,\n        _patientAddress\n      );\n      if(medicalProblems.length > lastMedicalProblemCount) {\n        lastMedicalProblemCount = medicalProblems.length;\n        uint _currentMedicalProblemId = medicalProblems[lastMedicalProblemCount-1].id;\n        createPatientIssue(_doctorAddress, medicalProblems[lastMedicalProblemCount-1].id);\n        if(patientIssues[_doctorAddress].medicalProblemIds[_currentMedicalProblemId] == _currentMedicalProblemId) return true;\n        return false;\n      }\n  }\n\n  function createMedication(\n    string memory _name,\n    uint _beginDate,\n    uint _endDate,\n    string memory _dosage,\n    string memory _referredBy,\n    string memory _hospName,\n    uint _medicalProblemId) public onlyDoctor(msg.sender) {\n    // Increment medication count\n    medicationCount ++;\n    // Create the medication\n    Medication memory _medication = Medication(\n      medicationCount,\n      _name,\n      _beginDate,\n      _endDate,\n      _dosage,\n      _referredBy,\n      _hospName,\n      _medicalProblemId,\n      new address[](0)\n    );\n    medications[medicationCount] = _medication;\n    medications[medicationCount].candidateAddress.push(msg.sender);\n\n    // Save index\n    medicationIndexes.push(medicationCount);\n  }\n\n  function prescribeMedication(\n    string memory _name,\n    uint _beginDate,\n    uint _endDate,\n    string memory _dosage,\n    string memory _referredBy,\n    string memory _hospName,\n    uint _medicalProblemId,\n    address _patientAddress) public onlyDoctor(msg.sender) returns(bool _result) {\n      _result = false;\n      uint lastMedicationCount = medicationIndexes.length;\n      createMedication(\n        _name,\n        _beginDate,\n        _endDate,\n        _dosage,\n        _referredBy,\n        _hospName,\n        _medicalProblemId\n      );\n      if(medicationIndexes.length > lastMedicationCount) {\n        lastMedicationCount = medicationIndexes.length;\n        uint _currentMedicationId = medications[lastMedicationCount].id;\n        // Increment patient count\n        patientMedicationCount ++;\n        patientMedications[_patientAddress].id = patientMedicationCount;\n        patientMedications[_patientAddress].medicationIds[_currentMedicationId] = _currentMedicationId;\n\n        // save index\n        patientMedicationIndexes.push(patientMedicationCount);\n        _result = true;\n      }\n      return _result;\n  }\n// onlyPatient(msg.sender)\n  function shareMedicationTo(address _candidateAddress, uint _medicationId) public {\n    // Fetch the medication\n    uint _patientMedicationId = patientMedications[msg.sender].medicationIds[_medicationId];\n    Medication memory _medication = medications[_patientMedicationId];\n\n    // Make sure this medication has a valid id\n    require(_medication.id > 0 && _medication.id == _patientMedicationId, '');\n    // Share this patient medication to \"_candidateAddress\" address\n    doctorAddresses = _medication.candidateAddress;\n    doctorAddresses.push(_candidateAddress);\n    _medication.candidateAddress = doctorAddresses;\n  }\n}\n",
  "sourcePath": "/Users/codegig/Documents/my stuffs/4D_files/Git/garbase/src/contracts/MedicalRecord.sol",
  "compiler": {
    "name": "solc",
    "version": "0.5.8+commit.23d335f2.Emscripten.clang"
  },
  "schemaVersion": "3.0.11",
  "updatedAt": "2019-09-22T04:13:46.344Z",
  "devdoc": {
    "methods": {
      "createMedicalProblem(string,uint256,uint256,string,string,string,bool,address)": {
        "details": "Creates a medical issue by patient",
        "params": {
          "_beginDate": "{uint} begin date of issue",
          "_endDate": "{uint} end date of issue",
          "_isAllergyType": "{bool} is this issue allergy or not",
          "_occurance": "{string} how many times this issue occurrs",
          "_patientAddress": "{address} address of patient for whom this issue belongs",
          "_referredBy": "{string} person who refers this issue",
          "_severity": "{string} severity of this issue",
          "_title": "{string} address of doctor for whom this issue to examine"
        }
      },
      "createPatientIssue(address,uint256)": {
        "details": "Creates a patient issue submitted by a patient.",
        "params": {
          "_doctorAddress": "{address} address of doctor for whom this issue to examine",
          "_medicalProblemId": "{uint} medical problem id"
        }
      }
    },
    "title": "MedicalRecord. "
  },
  "userdoc": {
    "methods": {}
  }
}