{
  "contractName": "Medical",
  "abi": [
    {
      "constant": true,
      "inputs": [
        {
          "name": "",
          "type": "address"
        }
      ],
      "name": "patients",
      "outputs": [
        {
          "name": "",
          "type": "bool"
        }
      ],
      "payable": false,
      "stateMutability": "view",
      "type": "function"
    },
    {
      "constant": true,
      "inputs": [
        {
          "name": "",
          "type": "uint256"
        }
      ],
      "name": "records",
      "outputs": [
        {
          "name": "admissionNo",
          "type": "string"
        },
        {
          "name": "name",
          "type": "string"
        },
        {
          "name": "hospital",
          "type": "string"
        },
        {
          "name": "doctor",
          "type": "string"
        },
        {
          "name": "prescription",
          "type": "string"
        }
      ],
      "payable": false,
      "stateMutability": "view",
      "type": "function"
    },
    {
      "constant": true,
      "inputs": [],
      "name": "owner",
      "outputs": [
        {
          "name": "",
          "type": "address"
        }
      ],
      "payable": false,
      "stateMutability": "view",
      "type": "function"
    },
    {
      "anonymous": false,
      "inputs": [],
      "name": "CreatedPatientEvent",
      "type": "event"
    },
    {
      "constant": true,
      "inputs": [],
      "name": "getNumPatients",
      "outputs": [
        {
          "name": "",
          "type": "uint256"
        }
      ],
      "payable": false,
      "stateMutability": "view",
      "type": "function"
    },
    {
      "constant": false,
      "inputs": [
        {
          "name": "_admissionNo",
          "type": "string"
        },
        {
          "name": "_name",
          "type": "string"
        },
        {
          "name": "_hospital",
          "type": "string"
        },
        {
          "name": "_doctor",
          "type": "string"
        },
        {
          "name": "_prescription",
          "type": "string"
        }
      ],
      "name": "addPatient",
      "outputs": [
        {
          "name": "",
          "type": "bool"
        }
      ],
      "payable": false,
      "stateMutability": "nonpayable",
      "type": "function"
    },
    {
      "constant": true,
      "inputs": [
        {
          "name": "recordInt",
          "type": "uint256"
        }
      ],
      "name": "getPatient",
      "outputs": [
        {
          "name": "",
          "type": "uint256"
        },
        {
          "name": "",
          "type": "string"
        },
        {
          "name": "",
          "type": "string"
        },
        {
          "name": "",
          "type": "string"
        },
        {
          "name": "",
          "type": "string"
        },
        {
          "name": "",
          "type": "string"
        },
        {
          "name": "",
          "type": "address[]"
        }
      ],
      "payable": false,
      "stateMutability": "view",
      "type": "function"
    }
  ],
  "bytecode": "0x608060405260028054600160a060020a0319163317905534801561002257600080fd5b50611238806100326000396000f3006080604052600436106100775763ffffffff7c01000000000000000000000000000000000000000000000000000000006000350416630869cfbc811461007c57806334461067146100be57806356fa8217146102e65780637d3a6796146104375780638da5cb5b146106a7578063d196b8ed146106e5575b600080fd5b34801561008857600080fd5b506100aa73ffffffffffffffffffffffffffffffffffffffff6004351661070c565b604080519115158252519081900360200190f35b3480156100ca57600080fd5b506100d6600435610721565b60405180806020018060200180602001806020018060200186810386528b818151815260200191508051906020019080838360005b8381101561012357818101518382015260200161010b565b50505050905090810190601f1680156101505780820380516001836020036101000a031916815260200191505b5086810385528a5181528a516020918201918c019080838360005b8381101561018357818101518382015260200161016b565b50505050905090810190601f1680156101b05780820380516001836020036101000a031916815260200191505b5086810384528951815289516020918201918b019080838360005b838110156101e35781810151838201526020016101cb565b50505050905090810190601f1680156102105780820380516001836020036101000a031916815260200191505b5086810383528851815288516020918201918a019080838360005b8381101561024357818101518382015260200161022b565b50505050905090810190601f1680156102705780820380516001836020036101000a031916815260200191505b50868103825287518152875160209182019189019080838360005b838110156102a357818101518382015260200161028b565b50505050905090810190601f1680156102d05780820380516001836020036101000a031916815260200191505b509a505050505050505050505060405180910390f35b3480156102f257600080fd5b506040805160206004803580820135601f81018490048402850184019095528484526100aa94369492936024939284019190819084018382808284375050604080516020601f89358b018035918201839004830284018301909452808352979a99988101979196509182019450925082915084018382808284375050604080516020601f89358b018035918201839004830284018301909452808352979a99988101979196509182019450925082915084018382808284375050604080516020601f89358b018035918201839004830284018301909452808352979a99988101979196509182019450925082915084018382808284375050604080516020601f89358b018035918201839004830284018301909452808352979a999881019791965091820194509250829150840183828082843750949750610a229650505050505050565b34801561044357600080fd5b5061044f600435610cc5565b6040518088815260200180602001806020018060200180602001806020018060200187810387528d818151815260200191508051906020019080838360005b838110156104a657818101518382015260200161048e565b50505050905090810190601f1680156104d35780820380516001836020036101000a031916815260200191505b5087810386528c5181528c516020918201918e019080838360005b838110156105065781810151838201526020016104ee565b50505050905090810190601f1680156105335780820380516001836020036101000a031916815260200191505b5087810385528b5181528b516020918201918d019080838360005b8381101561056657818101518382015260200161054e565b50505050905090810190601f1680156105935780820380516001836020036101000a031916815260200191505b5087810384528a5181528a516020918201918c019080838360005b838110156105c65781810151838201526020016105ae565b50505050905090810190601f1680156105f35780820380516001836020036101000a031916815260200191505b5087810383528951815289516020918201918b019080838360005b8381101561062657818101518382015260200161060e565b50505050905090810190601f1680156106535780820380516001836020036101000a031916815260200191505b508781038252885181528851602091820191808b01910280838360005b83811015610688578181015183820152602001610670565b505050509050019d505050505050505050505050505060405180910390f35b3480156106b357600080fd5b506106bc61106e565b6040805173ffffffffffffffffffffffffffffffffffffffff9092168252519081900360200190f35b3480156106f157600080fd5b506106fa61108a565b60408051918252519081900360200190f35b60016020526000908152604090205460ff1681565b600080548290811061072f57fe5b60009182526020918290206006919091020180546040805160026001841615610100026000190190931692909204601f8101859004850283018501909152808252919350918391908301828280156107c85780601f1061079d576101008083540402835291602001916107c8565b820191906000526020600020905b8154815290600101906020018083116107ab57829003601f168201915b505050505090806001018054600181600116156101000203166002900480601f0160208091040260200160405190810160405280929190818152602001828054600181600116156101000203166002900480156108665780601f1061083b57610100808354040283529160200191610866565b820191906000526020600020905b81548152906001019060200180831161084957829003601f168201915b50505060028085018054604080516020601f60001961010060018716150201909416959095049283018590048502810185019091528181529596959450909250908301828280156108f85780601f106108cd576101008083540402835291602001916108f8565b820191906000526020600020905b8154815290600101906020018083116108db57829003601f168201915b5050505060038301805460408051602060026001851615610100026000190190941693909304601f81018490048402820184019092528181529495949350908301828280156109885780601f1061095d57610100808354040283529160200191610988565b820191906000526020600020905b81548152906001019060200180831161096b57829003601f168201915b5050505060048301805460408051602060026001851615610100026000190190941693909304601f8101849004840282018401909252818152949594935090830182828015610a185780601f106109ed57610100808354040283529160200191610a18565b820191906000526020600020905b8154815290600101906020018083116109fb57829003601f168201915b5050505050905085565b6000610a2c611091565b8651600010610a9c57604080517f08c379a000000000000000000000000000000000000000000000000000000000815260206004820152601c60248201527f41646d697373696f6e204e756d62657220697320726571756972656400000000604482015290519081900360640190fd5b8551600010610b0c57604080517f08c379a000000000000000000000000000000000000000000000000000000000815260206004820152601860248201527f50617469656e74204e616d652069732072657175697265640000000000000000604482015290519081900360640190fd5b865160091015610b7d57604080517f08c379a000000000000000000000000000000000000000000000000000000000815260206004820152601560248201527f41646d697373696f6e204c656e67746820697320390000000000000000000000604482015290519081900360640190fd5b6040517f6f32500025918c94a04c1946df9cddf4638e096a856c3d8f0d23f1dd15d7680b90600090a186815260208082018790526040820186905260608201859052608082018490526000805460018101808355918052835180519293859360069093027f290decd9548b62a8d60345a988386fc84ba6bc95484008f6362f93160ef3e5630192610c1192849201906110c8565b506020828101518051610c2a92600185019201906110c8565b5060408201518051610c469160028401916020909101906110c8565b5060608201518051610c629160038401916020909101906110c8565b5060808201518051610c7e9160048401916020909101906110c8565b5060a08201518051610c9a916005840191602090910190611146565b5050336000908152600160208190526040909120805460ff1916821790559998505050505050505050565b6000606080606080606080600080600080549050111561106257600080548a908110610ced57fe5b9060005260206000209060060201905088816000018260010183600201846003018560040186600501858054600181600116156101000203166002900480601f016020809104026020016040519081016040528092919081815260200182805460018160011615610100020316600290048015610dab5780601f10610d8057610100808354040283529160200191610dab565b820191906000526020600020905b815481529060010190602001808311610d8e57829003601f168201915b5050885460408051602060026001851615610100026000190190941693909304601f8101849004840282018401909252818152959b508a945092508401905082828015610e395780601f10610e0e57610100808354040283529160200191610e39565b820191906000526020600020905b815481529060010190602001808311610e1c57829003601f168201915b5050875460408051602060026001851615610100026000190190941693909304601f8101849004840282018401909252818152959a5089945092508401905082828015610ec75780601f10610e9c57610100808354040283529160200191610ec7565b820191906000526020600020905b815481529060010190602001808311610eaa57829003601f168201915b5050865460408051602060026001851615610100026000190190941693909304601f810184900484028201840190925281815295995088945092508401905082828015610f555780601f10610f2a57610100808354040283529160200191610f55565b820191906000526020600020905b815481529060010190602001808311610f3857829003601f168201915b5050855460408051602060026001851615610100026000190190941693909304601f810184900484028201840190925281815295985087945092508401905082828015610fe35780601f10610fb857610100808354040283529160200191610fe3565b820191906000526020600020905b815481529060010190602001808311610fc657829003601f168201915b505050505091508080548060200260200160405190810160405280929190818152602001828054801561104c57602002820191906000526020600020905b815473ffffffffffffffffffffffffffffffffffffffff168152600190910190602001808311611021575b5050505050905097509750975097509750975097505b50919395979092949650565b60025473ffffffffffffffffffffffffffffffffffffffff1681565b6000545b90565b60c0604051908101604052806060815260200160608152602001606081526020016060815260200160608152602001606081525090565b828054600181600116156101000203166002900490600052602060002090601f016020900481019282601f1061110957805160ff1916838001178555611136565b82800160010185558215611136579182015b8281111561113657825182559160200191906001019061111b565b506111429291506111c1565b5090565b8280548282559060005260206000209081019282156111b5579160200282015b828111156111b5578251825473ffffffffffffffffffffffffffffffffffffffff191673ffffffffffffffffffffffffffffffffffffffff909116178255602090920191600190910190611166565b506111429291506111db565b61108e91905b8082111561114257600081556001016111c7565b61108e91905b8082111561114257805473ffffffffffffffffffffffffffffffffffffffff191681556001016111e15600a165627a7a723058209ff8cc22ecfa744288099b869741130ea0593737591f72306ac96d912e3f20390029",
  "source": "pragma solidity ^0.4.24;\n\n/** @title Medical Record. */\ncontract Medical {\n/** @dev Adds a new patient and gets the patient record.\n    * @param admissionNo The admission number of the patient.\n    * @param name The name of the patient.\n    * @param hospital The name of the hospital.\n    * @param doctor The name of the patients doctor.\n    * @param prescription The name of the patients prescription.\n    * @return recordInt Returns the patients record number.\n*/\n\n    /** @dev Custom defined types for the patient record. */\n    struct Record {\n        string admissionNo;\n        string name;\n        string hospital;\n        string doctor;\n        string prescription;\n        address[] patientsAddress;\n    }\n\n    /** @dev Records array */\n    Record[] public records;\n\n    mapping(address => bool) public patients;\n\n    address public owner = msg.sender;\n    event CreatedPatientEvent();\n\n    /** @dev Restrict read access to contract’s state by other contracts */\n    modifier onlyBy(address _account)\n    {\n        require(\n            msg.sender == _account,\n            \"Sender not authorized.\"\n        );\n        _;\n    }\n\n    /** @dev Returns the number of patients. */\n    function getNumPatients() public view\n        //onlyBy(owner)\n        returns (uint) {\n            return records.length;\n    }\n\n    /** @dev Adds a new patient record. */\n     function addPatient(string _admissionNo, string _name, string _hospital, string _doctor, string _prescription)  public\n     //onlyBy(owner)  //restrict access\n     returns (bool) {\n        require(bytes(_admissionNo).length > 0, \"Admission Number is required\"); //check the admission number is entered\n        require(bytes(_name).length > 0, \"Patient Name is required\"); //check the patient name is entered\n        require(bytes(_admissionNo).length <= 9, \"Admission Length is 9\"); //check the admission number length is 9 characters\n\n        Record memory record;\n        emit CreatedPatientEvent();  //update the event\n\n        record.admissionNo = _admissionNo;\n        record.name = _name;\n        record.hospital = _hospital;\n        record.doctor = _doctor;\n        record.prescription = _prescription;\n\n        records.push(record); //add the patient record\n\n        patients[msg.sender] = true; //update to true\n        return true;\n    }\n\n    /** @dev Gets the patient record based on the record id. */\n    function getPatient(uint recordInt) public view\n    //onlyBy(owner)  //restrict access\n    returns (uint, string, string, string, string, string, address[]) {\n        if (records.length > 0) {  //check the record length is greater than 0\n            Record storage p = records[recordInt]; // Get the record\n            return (recordInt, p.admissionNo, p.name, p.hospital, p.doctor, p.prescription, p.patientsAddress);  //return the record set based on the id\n        }\n    }\n}\n",
  "sourcePath": "/Users/codegig/Documents/my stuffs/4D_files/Git/MERN-MEDICAL-Blockchain/contracts/medical.sol",
  "compiler": {
    "name": "solc",
    "version": "0.4.26+commit.4563c3fc.Emscripten.clang"
  },
  "schemaVersion": "3.0.11",
  "updatedAt": "2019-09-21T03:59:46.979Z",
  "devdoc": {
    "methods": {
      "addPatient(string,string,string,string,string)": {
        "details": "Adds a new patient record. "
      },
      "getNumPatients()": {
        "details": "Returns the number of patients. "
      },
      "getPatient(uint256)": {
        "details": "Gets the patient record based on the record id. "
      }
    },
    "title": "Medical Record. "
  },
  "userdoc": {
    "methods": {}
  }
}