{
  "contractName": "MedicalRecord",
  "abi": [
    {
      "constant": true,
      "inputs": [],
      "name": "medicalProblemCount",
      "outputs": [
        {
          "name": "",
          "type": "uint256"
        }
      ],
      "payable": false,
      "stateMutability": "view",
      "type": "function"
    },
    {
      "constant": true,
      "inputs": [],
      "name": "patientIssueCount",
      "outputs": [
        {
          "name": "",
          "type": "uint256"
        }
      ],
      "payable": false,
      "stateMutability": "view",
      "type": "function"
    },
    {
      "constant": true,
      "inputs": [
        {
          "name": "",
          "type": "address"
        }
      ],
      "name": "patientIssues",
      "outputs": [
        {
          "name": "id",
          "type": "uint256"
        }
      ],
      "payable": false,
      "stateMutability": "view",
      "type": "function"
    },
    {
      "constant": true,
      "inputs": [
        {
          "name": "",
          "type": "uint256"
        }
      ],
      "name": "medicalProblems",
      "outputs": [
        {
          "name": "id",
          "type": "uint256"
        },
        {
          "name": "title",
          "type": "string"
        },
        {
          "name": "beginDate",
          "type": "uint256"
        },
        {
          "name": "endDate",
          "type": "uint256"
        },
        {
          "name": "occurance",
          "type": "string"
        },
        {
          "name": "severity",
          "type": "string"
        },
        {
          "name": "referredBy",
          "type": "string"
        },
        {
          "name": "isAllergyType",
          "type": "bool"
        },
        {
          "name": "patientAddress",
          "type": "address"
        }
      ],
      "payable": false,
      "stateMutability": "view",
      "type": "function"
    },
    {
      "constant": true,
      "inputs": [
        {
          "name": "",
          "type": "address"
        }
      ],
      "name": "candidateRoles",
      "outputs": [
        {
          "name": "",
          "type": "uint8"
        }
      ],
      "payable": false,
      "stateMutability": "view",
      "type": "function"
    },
    {
      "constant": true,
      "inputs": [],
      "name": "patientMedicationCount",
      "outputs": [
        {
          "name": "",
          "type": "uint256"
        }
      ],
      "payable": false,
      "stateMutability": "view",
      "type": "function"
    },
    {
      "constant": true,
      "inputs": [],
      "name": "medicationCount",
      "outputs": [
        {
          "name": "",
          "type": "uint256"
        }
      ],
      "payable": false,
      "stateMutability": "view",
      "type": "function"
    },
    {
      "constant": true,
      "inputs": [
        {
          "name": "",
          "type": "uint256"
        }
      ],
      "name": "candidateList",
      "outputs": [
        {
          "name": "",
          "type": "address"
        }
      ],
      "payable": false,
      "stateMutability": "view",
      "type": "function"
    },
    {
      "constant": true,
      "inputs": [],
      "name": "contractOwner",
      "outputs": [
        {
          "name": "",
          "type": "address"
        }
      ],
      "payable": false,
      "stateMutability": "view",
      "type": "function"
    },
    {
      "constant": true,
      "inputs": [
        {
          "name": "",
          "type": "address"
        }
      ],
      "name": "patientMedications",
      "outputs": [
        {
          "name": "id",
          "type": "uint256"
        }
      ],
      "payable": false,
      "stateMutability": "view",
      "type": "function"
    },
    {
      "constant": true,
      "inputs": [
        {
          "name": "",
          "type": "uint256"
        }
      ],
      "name": "medications",
      "outputs": [
        {
          "name": "id",
          "type": "uint256"
        },
        {
          "name": "beginDate",
          "type": "uint256"
        },
        {
          "name": "endDate",
          "type": "uint256"
        },
        {
          "name": "_dosage",
          "type": "string"
        },
        {
          "name": "referredBy",
          "type": "string"
        },
        {
          "name": "hospName",
          "type": "string"
        },
        {
          "name": "medicalProblemId",
          "type": "uint256"
        }
      ],
      "payable": false,
      "stateMutability": "view",
      "type": "function"
    },
    {
      "inputs": [],
      "payable": false,
      "stateMutability": "nonpayable",
      "type": "constructor"
    },
    {
      "constant": false,
      "inputs": [
        {
          "name": "_candidate",
          "type": "address"
        },
        {
          "name": "_candidateRoles",
          "type": "uint8"
        }
      ],
      "name": "registerCandidate",
      "outputs": [],
      "payable": false,
      "stateMutability": "nonpayable",
      "type": "function"
    },
    {
      "constant": true,
      "inputs": [
        {
          "name": "_candidate",
          "type": "address"
        }
      ],
      "name": "validateCandidate",
      "outputs": [
        {
          "name": "",
          "type": "bool"
        }
      ],
      "payable": false,
      "stateMutability": "view",
      "type": "function"
    },
    {
      "constant": false,
      "inputs": [
        {
          "name": "_title",
          "type": "string"
        },
        {
          "name": "_beginDate",
          "type": "uint256"
        },
        {
          "name": "_endDate",
          "type": "uint256"
        },
        {
          "name": "_occurance",
          "type": "string"
        },
        {
          "name": "_severity",
          "type": "string"
        },
        {
          "name": "_referredBy",
          "type": "string"
        },
        {
          "name": "_isAllergyType",
          "type": "bool"
        },
        {
          "name": "_patientAddress",
          "type": "address"
        }
      ],
      "name": "createMedicalProblem",
      "outputs": [],
      "payable": false,
      "stateMutability": "nonpayable",
      "type": "function"
    },
    {
      "constant": false,
      "inputs": [
        {
          "name": "_doctorAddress",
          "type": "address"
        },
        {
          "name": "_medicalProblemId",
          "type": "uint256"
        }
      ],
      "name": "createPatientIssue",
      "outputs": [],
      "payable": false,
      "stateMutability": "nonpayable",
      "type": "function"
    },
    {
      "constant": false,
      "inputs": [
        {
          "name": "_beginDate",
          "type": "uint256"
        },
        {
          "name": "_endDate",
          "type": "uint256"
        },
        {
          "name": "_dosage",
          "type": "string"
        },
        {
          "name": "_referredBy",
          "type": "string"
        },
        {
          "name": "_hospName",
          "type": "string"
        },
        {
          "name": "_medicalProblemId",
          "type": "uint256"
        }
      ],
      "name": "createMedication",
      "outputs": [],
      "payable": false,
      "stateMutability": "nonpayable",
      "type": "function"
    },
    {
      "constant": false,
      "inputs": [
        {
          "name": "_patientAddress",
          "type": "address"
        },
        {
          "name": "_medicationId",
          "type": "uint256"
        }
      ],
      "name": "prescribeMedication",
      "outputs": [],
      "payable": false,
      "stateMutability": "nonpayable",
      "type": "function"
    },
    {
      "constant": false,
      "inputs": [
        {
          "name": "_candidateAddress",
          "type": "address"
        },
        {
          "name": "_medicationId",
          "type": "uint256"
        }
      ],
      "name": "shareMedicationTo",
      "outputs": [],
      "payable": false,
      "stateMutability": "nonpayable",
      "type": "function"
    }
  ],
  "bytecode": "0x6080604052600060025560006003556000600455600060055534801561002457600080fd5b5060008054600160a060020a03191633179055611996806100466000396000f3006080604052600436106100fb5763ffffffff7c010000000000000000000000000000000000000000000000000000000060003504166304bec5de811461010057806323d5512a14610127578063244fb9b01461015057806332b9603b146101655780634450af981461018657806344d292b9146102b6578063567bd26f146104b15780635f1f76f41461058f57806382a98d4d146105d45780638d72d670146105e95780638ea9c9a8146105fe5780639c0d443614610622578063b13c744b14610657578063cc35f3b31461068b578063ce606ee0146106af578063d2bfa43c146106c4578063f093ada3146106e5578063fa8547f614610709575b600080fd5b34801561010c57600080fd5b50610115610881565b60408051918252519081900360200190f35b34801561013357600080fd5b5061014e600160a060020a036004351660ff60243516610887565b005b34801561015c57600080fd5b50610115610944565b34801561017157600080fd5b50610115600160a060020a036004351661094a565b34801561019257600080fd5b506040805160206004803580820135601f810184900484028501840190955284845261014e94369492936024939284019190819084018382808284375050604080516020888301358a018035601f8101839004830284018301909452838352979a89359a8a8301359a9199909850606090910196509194509081019250819084018382808284375050604080516020601f89358b018035918201839004830284018301909452808352979a99988101979196509182019450925082915084018382808284375050604080516020601f89358b018035918201839004830284018301909452808352979a999881019791965091820194509250829150840183828082843750949750505050823515159350505060200135600160a060020a031661095c565b3480156102c257600080fd5b506102ce600435610b43565b604051808a8152602001806020018981526020018881526020018060200180602001806020018715151515815260200186600160a060020a0316600160a060020a0316815260200185810385528d818151815260200191508051906020019080838360005b8381101561034b578181015183820152602001610333565b50505050905090810190601f1680156103785780820380516001836020036101000a031916815260200191505b5085810384528a5181528a516020918201918c019080838360005b838110156103ab578181015183820152602001610393565b50505050905090810190601f1680156103d85780820380516001836020036101000a031916815260200191505b5085810383528951815289516020918201918b019080838360005b8381101561040b5781810151838201526020016103f3565b50505050905090810190601f1680156104385780820380516001836020036101000a031916815260200191505b5085810382528851815288516020918201918a019080838360005b8381101561046b578181015183820152602001610453565b50505050905090810190601f1680156104985780820380516001836020036101000a031916815260200191505b509d505050505050505050505050505060405180910390f35b3480156104bd57600080fd5b50604080516020600460443581810135601f810184900484028501840190955284845261014e94823594602480359536959460649492019190819084018382808284375050604080516020601f89358b018035918201839004830284018301909452808352979a99988101979196509182019450925082915084018382808284375050604080516020601f89358b018035918201839004830284018301909452808352979a9998810197919650918201945092508291508401838280828437509497505093359450610df19350505050565b34801561059b57600080fd5b506105b0600160a060020a0360043516610f85565b604051808260018111156105c057fe5b60ff16815260200191505060405180910390f35b3480156105e057600080fd5b50610115610f9a565b3480156105f557600080fd5b50610115610fa0565b34801561060a57600080fd5b5061014e600160a060020a0360043516602435610fa6565b34801561062e57600080fd5b50610643600160a060020a03600435166110ea565b604080519115158252519081900360200190f35b34801561066357600080fd5b5061066f600435611148565b60408051600160a060020a039092168252519081900360200190f35b34801561069757600080fd5b5061014e600160a060020a0360043516602435611170565b3480156106bb57600080fd5b5061066f611551565b3480156106d057600080fd5b50610115600160a060020a0360043516611560565b3480156106f157600080fd5b5061014e600160a060020a0360043516602435611572565b34801561071557600080fd5b506107216004356115fc565b60405180888152602001878152602001868152602001806020018060200180602001858152602001848103845288818151815260200191508051906020019080838360005b8381101561077e578181015183820152602001610766565b50505050905090810190601f1680156107ab5780820380516001836020036101000a031916815260200191505b50848103835287518152875160209182019189019080838360005b838110156107de5781810151838201526020016107c6565b50505050905090810190601f16801561080b5780820380516001836020036101000a031916815260200191505b50848103825286518152865160209182019188019080838360005b8381101561083e578181015183820152602001610826565b50505050905090810190601f16801561086b5780820380516001836020036101000a031916815260200191505b509a505050505050505050505060405180910390f35b60025481565b600054600160a060020a031633146108c3576040805160e560020a62461bcd028152602060048201526000602482015290519081900360640190fd5b6001805480820182557fb10e2d527612073b26eecdfd717e6a320cf44b4afac2b0732d9fcbe2b7fa0cf601805473ffffffffffffffffffffffffffffffffffffffff1916600160a060020a03851690811790915560009081526007602052604090208054839260ff1990911690838181111561093b57fe5b02179055505050565b60035481565b60096020526000908152604090205481565b3360008181526007602052604090205460019060ff168181111561097c57fe5b146109ab576040805160e560020a62461bcd028152602060048201526000602482015290519081900360640190fd5b60028054600190810190915560038054820190819055604080516101208101825291825260208083018d81529183018c9052606083018b9052608083018a905260a0830189905260c0830188905286151560e0840152600160a060020a0386166101008401526008805494850180825560008290528451959091027ff3f7a9fe364faab93b216da50a3214154f22a0a2b415b23a84c8169e8b636ee3810195865592518051919593610a84937ff3f7a9fe364faab93b216da50a3214154f22a0a2b415b23a84c8169e8b636ee4909101929101906117ea565b50604082015160028201556060820151600382015560808201518051610ab49160048401916020909101906117ea565b5060a08201518051610ad09160058401916020909101906117ea565b5060c08201518051610aec9160068401916020909101906117ea565b5060e082015160079190910180546101009384015160ff199091169215159290921774ffffffffffffffffffffffffffffffffffffffff001916600160a060020a0390921690920217905550505050505050505050565b6008805482908110610b5157fe5b9060005260206000209060080201600091509050806000015490806001018054600181600116156101000203166002900480601f016020809104026020016040519081016040528092919081815260200182805460018160011615610100020316600290048015610c035780601f10610bd857610100808354040283529160200191610c03565b820191906000526020600020905b815481529060010190602001808311610be657829003601f168201915b505050505090806002015490806003015490806004018054600181600116156101000203166002900480601f016020809104026020016040519081016040528092919081815260200182805460018160011615610100020316600290048015610cad5780601f10610c8257610100808354040283529160200191610cad565b820191906000526020600020905b815481529060010190602001808311610c9057829003601f168201915b5050505060058301805460408051602060026001851615610100026000190190941693909304601f8101849004840282018401909252818152949594935090830182828015610d3d5780601f10610d1257610100808354040283529160200191610d3d565b820191906000526020600020905b815481529060010190602001808311610d2057829003601f168201915b5050505060068301805460408051602060026001851615610100026000190190941693909304601f8101849004840282018401909252818152949594935090830182828015610dcd5780601f10610da257610100808354040283529160200191610dcd565b820191906000526020600020905b815481529060010190602001808311610db057829003601f168201915b5050506007909301549192505060ff811690600160a060020a036101009091041689565b610df9611868565b3360008181526007602052604081205460ff166001811115610e1757fe5b14610e46576040805160e560020a62461bcd028152602060048201526000602482015290519081900360640190fd5b60048054600190810191829055604080516101008101825283815260208082018d81528284018d8152606084018d8152608085018d905260a085018c905260c085018b905285516000808252818601885260e0870191909152978852600a8452949096208351815590519481019490945593516002840155905180519195508593610ed9926003850192909101906117ea565b5060808201518051610ef59160048401916020909101906117ea565b5060a08201518051610f119160058401916020909101906117ea565b5060c0820151600682015560e08201518051610f379160078401916020909101906118ae565b50506004546000908152600a6020908152604082206007018054600181018255908352912001805473ffffffffffffffffffffffffffffffffffffffff191633179055505050505050505050565b60076020526000908152604090205460ff1681565b60055481565b60045481565b3360008181526007602052604090205460019060ff1681811115610fc657fe5b14610ff5576040805160e560020a62461bcd028152602060048201526000602482015290519081900360640190fd5b600160a060020a0383161515611055576040805160e560020a62461bcd02815260206004820152601b60248201527f506c6561736520656e74657220646f63746f7220616464726573730000000000604482015290519081900360640190fd5b600082116110ad576040805160e560020a62461bcd02815260206004820152601f60248201527f506c6561736520656e746572206d65646963616c2070726f626c656d20696400604482015290519081900360640190fd5b5060038054600190810191829055600160a060020a0390931660009081526009602090815260408083209384558483529290940190935290912055565b6000805b60015481101561113d5782600160a060020a031660018281548110151561111157fe5b600091825260209091200154600160a060020a031614156111355760019150611142565b6001016110ee565b600091505b50919050565b600180548290811061115657fe5b600091825260209091200154600160a060020a0316905081565b600061117a611868565b3360008181526007602052604090205460019060ff168181111561119a57fe5b146111c9576040805160e560020a62461bcd028152602060048201526000602482015290519081900360640190fd5b336000908152600b602090815260408083208784526001908101835281842054808552600a84529382902082516101008082018552825482528284015482870152600280840154838701526003840180548751968116159093026000190190921604601f810187900487028501870190955284845295985094909360608601939083018282801561129b5780601f106112705761010080835404028352916020019161129b565b820191906000526020600020905b81548152906001019060200180831161127e57829003601f168201915b505050918352505060048201805460408051602060026001851615610100026000190190941693909304601f810184900484028201840190925281815293820193929183018282801561132f5780601f106113045761010080835404028352916020019161132f565b820191906000526020600020905b81548152906001019060200180831161131257829003601f168201915b505050918352505060058201805460408051602060026001851615610100026000190190941693909304601f81018490048402820184019092528181529382019392918301828280156113c35780601f10611398576101008083540402835291602001916113c3565b820191906000526020600020905b8154815290600101906020018083116113a657829003601f168201915b50505050508152602001600682015481526020016007820180548060200260200160405190810160405280929190818152602001828054801561142f57602002820191906000526020600020905b8154600160a060020a03168152600190910190602001808311611411575b50505050508152505091506000826000015111801561144e5750815183145b151561147e576040805160e560020a62461bcd028152602060048201526000602482015290519081900360640190fd5b60e08201518051611497916006916020909101906118ae565b506006805460018101825560008290527ff652222313e28459528d920b65115c16c04f3efc82aaedc97be59f3f377c0d3f01805473ffffffffffffffffffffffffffffffffffffffff1916600160a060020a03881617905580546040805160208084028201810190925282815292919083018282801561154057602002820191906000526020600020905b8154600160a060020a03168152600190910190602001808311611522575b5050505060e0909301525050505050565b600054600160a060020a031681565b600b6020526000908152604090205481565b3360008181526007602052604081205460ff16600181111561159057fe5b146115bf576040805160e560020a62461bcd028152602060048201526000602482015290519081900360640190fd5b5060058054600190810191829055600160a060020a039093166000908152600b602090815260408083209384558483529290940190935290912055565b600a602052806000526040600020600091509050806000015490806001015490806002015490806003018054600181600116156101000203166002900480601f0160208091040260200160405190810160405280929190818152602001828054600181600116156101000203166002900480156116ba5780601f1061168f576101008083540402835291602001916116ba565b820191906000526020600020905b81548152906001019060200180831161169d57829003601f168201915b5050505060048301805460408051602060026001851615610100026000190190941693909304601f810184900484028201840190925281815294959493509083018282801561174a5780601f1061171f5761010080835404028352916020019161174a565b820191906000526020600020905b81548152906001019060200180831161172d57829003601f168201915b5050505060058301805460408051602060026001851615610100026000190190941693909304601f81018490048402820184019092528181529495949350908301828280156117da5780601f106117af576101008083540402835291602001916117da565b820191906000526020600020905b8154815290600101906020018083116117bd57829003601f168201915b5050505050908060060154905087565b828054600181600116156101000203166002900490600052602060002090601f016020900481019282601f1061182b57805160ff1916838001178555611858565b82800160010185558215611858579182015b8281111561185857825182559160200191906001019061183d565b5061186492915061191c565b5090565b6101006040519081016040528060008152602001600081526020016000815260200160608152602001606081526020016060815260200160008152602001606081525090565b828054828255906000526020600020908101928215611910579160200282015b82811115611910578251825473ffffffffffffffffffffffffffffffffffffffff1916600160a060020a039091161782556020909201916001909101906118ce565b50611864929150611939565b61193691905b808211156118645760008155600101611922565b90565b61193691905b8082111561186457805473ffffffffffffffffffffffffffffffffffffffff1916815560010161193f5600a165627a7a723058201b537502c0533569f91165996989c15f493dbe6574938ca128181bb467015c420029",
  "source": "pragma solidity ^0.4.24;\r\n\r\n// /** @title Medical Record. */\r\n// contract MedicalRecord {\r\n// /** @dev Adds a new patient and gets the patient record.\r\n//     * @param admissionNo The admission number of the patient.\r\n//     * @param name The name of the patient.\r\n//     * @param hospital The name of the hospital.\r\n//     * @param doctor The name of the patients doctor.\r\n//     * @param prescription The name of the patients prescription.\r\n//     * @return recordInt Returns the patients record number.\r\n// */\r\n\r\n//     /** @dev Custom defined types for the patient record. */\r\n//     struct Record {\r\n//         string admissionNo;\r\n//         string name;\r\n//         string hospital;\r\n//         string doctor;\r\n//         string prescription;\r\n//         address[] patientsAddress;\r\n//     }\r\n\r\n//     /** @dev Records array */\r\n//     Record[] public records;\r\n\r\n//     mapping(address => bool) public patients;\r\n\r\n//     address public owner = msg.sender;\r\n//     event CreatedPatientEvent();\r\n\r\n//     /** @dev Restrict read access to contracts state by other contracts */\r\n//     modifier onlyBy(address _account)\r\n//     {\r\n//         require(\r\n//             msg.sender == _account,\r\n//             \"Sender not authorized.\"\r\n//         );\r\n//         _;\r\n//     }\r\n\r\n//     /** @dev Returns the number of patients. */\r\n//     function getNumPatients() public view\r\n//         //onlyBy(owner)\r\n//         returns (uint) {\r\n//             return records.length;\r\n//     }\r\n\r\n//     /** @dev Adds a new patient record. */\r\n//      function addPatient(string _admissionNo, string _name, string _hospital, string _doctor, string _prescription)  public\r\n//      //onlyBy(owner)  //restrict access\r\n//      returns (bool) {\r\n//         require(bytes(_admissionNo).length > 0, \"Admission Number is required\"); //check the admission number is entered\r\n//         require(bytes(_name).length > 0, \"Patient Name is required\"); //check the patient name is entered\r\n//         require(bytes(_admissionNo).length <= 9, \"Admission Length is 9\"); //check the admission number length is 9 characters\r\n\r\n//         Record memory record;\r\n//         emit CreatedPatientEvent();  //update the event\r\n\r\n//         record.admissionNo = _admissionNo;\r\n//         record.name = _name;\r\n//         record.hospital = _hospital;\r\n//         record.doctor = _doctor;\r\n//         record.prescription = _prescription;\r\n\r\n//         records.push(record); //add the patient record\r\n\r\n//         patients[msg.sender] = true; //update to true\r\n//         return true;\r\n//     }\r\n\r\n//     /** @dev Gets the patient record based on the record id. */\r\n//     function getPatient(uint recordInt) public view\r\n//     //onlyBy(owner)  //restrict access\r\n//     returns (uint, string, string, string, string, string, address[]) {\r\n//         if (records.length > 0) {  //check the record length is greater than 0\r\n//             Record storage p = records[recordInt]; // Get the record\r\n//             return (recordInt, p.admissionNo, p.name, p.hospital, p.doctor, p.prescription, p.patientsAddress);  //return the record set based on the id\r\n//         }\r\n//     }\r\n// }\r\n\r\n// pragma solidity >=0.4.21 <0.6.0;\r\n\r\n// pragma experimental ABIEncoderV2;\r\n\r\n/** @title MedicalRecord. */\r\ncontract MedicalRecord {\r\n  // State variables\r\n  address public contractOwner;\r\n  address[] public candidateList;\r\n  uint public medicalProblemCount = 0;\r\n  uint public patientIssueCount = 0;\r\n  uint public medicationCount = 0;\r\n  uint public patientMedicationCount = 0;\r\n  address[] doctorAddresses;\r\n\r\n  enum Roles { DOCTOR, PATIENT }\r\n\r\n  // Store roles of each candidate to their corresponding addresses\r\n  mapping(address => Roles) public candidateRoles;\r\n\r\n  // Store accesses that is/are controlled by roles of each candidate to their corresponding addresses\r\n  // mapping(address => bool) public candidateCanAccess;\r\n\r\n  struct MedicalProblem {\r\n    uint id;\r\n    string title;\r\n    uint beginDate;\r\n    uint endDate;\r\n    string occurance;\r\n    string severity;\r\n    string referredBy;\r\n    bool isAllergyType;\r\n    address patientAddress;\r\n  }\r\n  MedicalProblem[] public medicalProblems;\r\n\r\n  struct patientIssue {\r\n    uint id;\r\n    mapping(uint => uint) medicalProblemIds; // This patient can have multiple medicalProblems\r\n  }\r\n\r\n  mapping(address => patientIssue) public patientIssues;\r\n\r\n  struct Medication {\r\n    uint id;\r\n    uint beginDate;\r\n    uint endDate;\r\n    string _dosage;\r\n    string referredBy;\r\n    string hospName;\r\n    uint medicalProblemId;\r\n    address[] candidateAddress; // Can share to multiple doctors by single patientMedication\r\n  }\r\n\r\n  mapping(uint => Medication) public medications;\r\n\r\n  struct patientMedication {\r\n    uint id;\r\n    mapping(uint => uint) medicationIds; // This patient can have multiple medications\r\n  }\r\n\r\n  mapping(address => patientMedication) public patientMedications;\r\n\r\n  constructor() public {\r\n    contractOwner = msg.sender; // Set the contract owner address\r\n  }\r\n\r\n  modifier onlyOwner {\r\n    require(msg.sender == contractOwner, '');\r\n    _;\r\n  }\r\n\r\n  modifier onlyDoctor(address _address) {\r\n    require(candidateRoles[_address] == Roles.DOCTOR, '');\r\n    _;\r\n  }\r\n\r\n  modifier onlyPatient(address _address) {\r\n    require(candidateRoles[_address] == Roles.PATIENT, '');\r\n    _;\r\n  }\r\n\r\n  // All candidates have to go through this registration process\r\n  // And only contract owner can register the candidate\r\n  function registerCandidate(address _candidate, Roles _candidateRoles) public onlyOwner {\r\n    candidateList.push(_candidate);\r\n    candidateRoles[_candidate] = _candidateRoles; // Set role for this candidate\r\n  }\r\n\r\n  // Check if this candidate is registered or not before allowing resources access.\r\n  function validateCandidate(address _candidate) public view returns (bool) {\r\n    for(uint i = 0; i < candidateList.length; i++) {\r\n      if(candidateList[i] == _candidate) {\r\n        return true;\r\n      }\r\n    }\r\n    return false;\r\n  }\r\n\r\n//   function getMsgSender() public view returns(address _msgSender) {\r\n//     _msgSender = msg.sender;\r\n//   }\r\n//this makes no sense;\r\n\r\n//   function getPatientMedicationIds(address _candidateAddress) public view returns(uint[] memory) {\r\n//       return patientMedications[_candidateAddress].medicationId;\r\n//   }\r\n\r\n//   function getAllPatientMedications() public view returns(Medication[] memory) {\r\n//       struct[] memory _medications = new struct[](0);\r\n//       for(uint i = 0; i < ) {\r\n          \r\n//       }\r\n//   } \r\n\r\n   /**@dev Creates a medical issue by patient\r\n    * @param _title {string} address of doctor for whom this issue to examine\r\n    * @param _beginDate {uint} begin date of issue\r\n    * @param _endDate {uint} end date of issue\r\n    * @param _occurance {string} how many times this issue occurrs\r\n    * @param _severity {string} severity of this issue\r\n    * @param _referredBy {string} person who refers this issue\r\n    * @param _isAllergyType {bool} is this issue allergy or not\r\n    * @param _patientAddress {address} address of patient for whom this issue belongs\r\n    */\r\n  function createMedicalProblem(\r\n    string memory _title,\r\n    uint _beginDate,\r\n    uint _endDate,\r\n    string memory _occurance,\r\n    string memory _severity,\r\n    string memory _referredBy,\r\n    bool _isAllergyType,\r\n    address _patientAddress) public onlyPatient(msg.sender) {\r\n    // Require a valid doctor to create medication\r\n    //require(_candidateRoles == Roles.PATIENT, 'Only patient can submit medical issue');\r\n    // Increment medicalProblem count\r\n    medicalProblemCount ++;\r\n    patientIssueCount++;\r\n    // Create the medical problem\r\n    medicalProblems.push(MedicalProblem(\r\n      patientIssueCount,\r\n      _title,\r\n      _beginDate,\r\n      _endDate,\r\n      _occurance,\r\n      _severity,\r\n      _referredBy,\r\n      _isAllergyType,\r\n      _patientAddress\r\n    ));\r\n  }\r\n\r\n   /**@dev Creates a patient issue submitted by a patient.\r\n    * @param _doctorAddress {address} address of doctor for whom this issue to examine\r\n    * @param _medicalProblemId {uint} medical problem id\r\n    */\r\n  function createPatientIssue(\r\n    address _doctorAddress,\r\n    uint _medicalProblemId) public onlyPatient(msg.sender) {\r\n    // Require a valid doctor address to submit patient issue\r\n    require(_doctorAddress != address(0), 'Please enter doctor address');\r\n\r\n     // Medical problem id is must require to create patient issue\r\n    require(_medicalProblemId > 0, 'Please enter medical problem id');\r\n\r\n    // Increment medicalProblem count\r\n    patientIssueCount ++;\r\n\r\n    patientIssues[_doctorAddress].id = patientIssueCount;\r\n    patientIssues[_doctorAddress].medicalProblemIds[_medicalProblemId] = _medicalProblemId;\r\n  }\r\n\r\n  function createMedication(\r\n    uint _beginDate,\r\n    uint _endDate,\r\n    string memory _dosage,\r\n    string memory _referredBy,\r\n    string memory _hospName,\r\n    uint _medicalProblemId) public onlyDoctor(msg.sender) {\r\n    // Increment medication count\r\n    medicationCount ++;\r\n    // Create the medication\r\n    Medication memory _medication = Medication(\r\n        medicationCount,\r\n        _beginDate,\r\n        _endDate,\r\n        _dosage,\r\n        _referredBy,\r\n        _hospName,\r\n        _medicalProblemId,\r\n        new address[](0)\r\n    );\r\n    medications[medicationCount] = _medication;\r\n    medications[medicationCount].candidateAddress.push(msg.sender);\r\n  }\r\n\r\n  function prescribeMedication(address _patientAddress, uint _medicationId) public onlyDoctor(msg.sender) {\r\n    // Increment patient count\r\n    patientMedicationCount ++;\r\n    patientMedications[_patientAddress].id = patientMedicationCount;\r\n    patientMedications[_patientAddress].medicationIds[_medicationId] = _medicationId;\r\n  }\r\n\r\n  function shareMedicationTo(address _candidateAddress, uint _medicationId) public onlyPatient(msg.sender) {\r\n    // Fetch the medication\r\n    uint _patientMedicationId = patientMedications[msg.sender].medicationIds[_medicationId];\r\n    Medication memory _medication = medications[_patientMedicationId];\r\n\r\n    // Make sure this medication has a valid id\r\n    require(_medication.id > 0 && _medication.id == _patientMedicationId, '');\r\n    // Share this patient medication to \"_candidateAddress\" address\r\n    doctorAddresses = _medication.candidateAddress;\r\n    doctorAddresses.push(_candidateAddress);\r\n    _medication.candidateAddress = doctorAddresses;\r\n  }\r\n}\r\n",
  "sourcePath": "C:/WorkSpace/Block Chain/Medical Record System/MERN-USER-auth/contracts/medical.sol",
  "compiler": {
    "name": "solc",
    "version": "0.4.26+commit.4563c3fc.Emscripten.clang"
  },
  "schemaVersion": "3.0.11",
  "updatedAt": "2019-09-13T08:28:08.796Z",
  "devdoc": {
    "methods": {
      "createMedicalProblem(string,uint256,uint256,string,string,string,bool,address)": {
        "details": "Creates a medical issue by patient\r",
        "params": {
          "_beginDate": "{uint} begin date of issue\r",
          "_endDate": "{uint} end date of issue\r",
          "_isAllergyType": "{bool} is this issue allergy or not\r",
          "_occurance": "{string} how many times this issue occurrs\r",
          "_patientAddress": "{address} address of patient for whom this issue belongs\r",
          "_referredBy": "{string} person who refers this issue\r",
          "_severity": "{string} severity of this issue\r",
          "_title": "{string} address of doctor for whom this issue to examine\r"
        }
      },
      "createPatientIssue(address,uint256)": {
        "details": "Creates a patient issue submitted by a patient.\r",
        "params": {
          "_doctorAddress": "{address} address of doctor for whom this issue to examine\r",
          "_medicalProblemId": "{uint} medical problem id\r"
        }
      }
    },
    "title": "MedicalRecord. "
  },
  "userdoc": {
    "methods": {}
  }
}