{
  "contractName": "MedicalRecord",
  "abi": [
    {
      "constant": true,
      "inputs": [],
      "name": "medicalProblemCount",
      "outputs": [
        {
          "name": "",
          "type": "uint256"
        }
      ],
      "payable": false,
      "stateMutability": "view",
      "type": "function"
    },
    {
      "constant": true,
      "inputs": [],
      "name": "patientIssueCount",
      "outputs": [
        {
          "name": "",
          "type": "uint256"
        }
      ],
      "payable": false,
      "stateMutability": "view",
      "type": "function"
    },
    {
      "constant": true,
      "inputs": [
        {
          "name": "",
          "type": "address"
        }
      ],
      "name": "patientIssues",
      "outputs": [
        {
          "name": "id",
          "type": "uint256"
        }
      ],
      "payable": false,
      "stateMutability": "view",
      "type": "function"
    },
    {
      "constant": true,
      "inputs": [
        {
          "name": "",
          "type": "uint256"
        }
      ],
      "name": "medicalProblems",
      "outputs": [
        {
          "name": "id",
          "type": "uint256"
        },
        {
          "name": "title",
          "type": "string"
        },
        {
          "name": "beginDate",
          "type": "uint256"
        },
        {
          "name": "endDate",
          "type": "uint256"
        },
        {
          "name": "occurance",
          "type": "string"
        },
        {
          "name": "severity",
          "type": "string"
        },
        {
          "name": "referredBy",
          "type": "string"
        },
        {
          "name": "isAllergyType",
          "type": "bool"
        },
        {
          "name": "patientAddress",
          "type": "address"
        }
      ],
      "payable": false,
      "stateMutability": "view",
      "type": "function"
    },
    {
      "constant": true,
      "inputs": [
        {
          "name": "",
          "type": "address"
        }
      ],
      "name": "candidateRoles",
      "outputs": [
        {
          "name": "",
          "type": "uint8"
        }
      ],
      "payable": false,
      "stateMutability": "view",
      "type": "function"
    },
    {
      "constant": true,
      "inputs": [
        {
          "name": "",
          "type": "uint256"
        }
      ],
      "name": "patientIssueIndexes",
      "outputs": [
        {
          "name": "",
          "type": "uint256"
        }
      ],
      "payable": false,
      "stateMutability": "view",
      "type": "function"
    },
    {
      "constant": true,
      "inputs": [],
      "name": "patientMedicationCount",
      "outputs": [
        {
          "name": "",
          "type": "uint256"
        }
      ],
      "payable": false,
      "stateMutability": "view",
      "type": "function"
    },
    {
      "constant": true,
      "inputs": [],
      "name": "medicationCount",
      "outputs": [
        {
          "name": "",
          "type": "uint256"
        }
      ],
      "payable": false,
      "stateMutability": "view",
      "type": "function"
    },
    {
      "constant": true,
      "inputs": [
        {
          "name": "",
          "type": "uint256"
        }
      ],
      "name": "medicationIndexes",
      "outputs": [
        {
          "name": "",
          "type": "uint256"
        }
      ],
      "payable": false,
      "stateMutability": "view",
      "type": "function"
    },
    {
      "constant": true,
      "inputs": [
        {
          "name": "",
          "type": "uint256"
        }
      ],
      "name": "candidateList",
      "outputs": [
        {
          "name": "",
          "type": "address"
        }
      ],
      "payable": false,
      "stateMutability": "view",
      "type": "function"
    },
    {
      "constant": true,
      "inputs": [],
      "name": "contractOwner",
      "outputs": [
        {
          "name": "",
          "type": "address"
        }
      ],
      "payable": false,
      "stateMutability": "view",
      "type": "function"
    },
    {
      "constant": true,
      "inputs": [
        {
          "name": "",
          "type": "address"
        }
      ],
      "name": "patientMedications",
      "outputs": [
        {
          "name": "id",
          "type": "uint256"
        }
      ],
      "payable": false,
      "stateMutability": "view",
      "type": "function"
    },
    {
      "constant": true,
      "inputs": [
        {
          "name": "",
          "type": "uint256"
        }
      ],
      "name": "patientMedicationIndexes",
      "outputs": [
        {
          "name": "",
          "type": "uint256"
        }
      ],
      "payable": false,
      "stateMutability": "view",
      "type": "function"
    },
    {
      "constant": true,
      "inputs": [
        {
          "name": "",
          "type": "uint256"
        }
      ],
      "name": "medications",
      "outputs": [
        {
          "name": "id",
          "type": "uint256"
        },
        {
          "name": "name",
          "type": "string"
        },
        {
          "name": "beginDate",
          "type": "uint256"
        },
        {
          "name": "endDate",
          "type": "uint256"
        },
        {
          "name": "dosage",
          "type": "string"
        },
        {
          "name": "referredBy",
          "type": "string"
        },
        {
          "name": "hospName",
          "type": "string"
        },
        {
          "name": "medicalProblemId",
          "type": "uint256"
        }
      ],
      "payable": false,
      "stateMutability": "view",
      "type": "function"
    },
    {
      "inputs": [],
      "payable": false,
      "stateMutability": "nonpayable",
      "type": "constructor"
    },
    {
      "constant": false,
      "inputs": [
        {
          "name": "_candidate",
          "type": "address"
        },
        {
          "name": "_candidateRoles",
          "type": "uint8"
        }
      ],
      "name": "registerCandidate",
      "outputs": [],
      "payable": false,
      "stateMutability": "nonpayable",
      "type": "function"
    },
    {
      "constant": true,
      "inputs": [
        {
          "name": "_candidate",
          "type": "address"
        }
      ],
      "name": "validateCandidate",
      "outputs": [
        {
          "name": "",
          "type": "bool"
        }
      ],
      "payable": false,
      "stateMutability": "view",
      "type": "function"
    },
    {
      "constant": true,
      "inputs": [
        {
          "name": "_candidate",
          "type": "address"
        }
      ],
      "name": "getCandidateByAddress",
      "outputs": [
        {
          "name": "",
          "type": "address"
        },
        {
          "name": "",
          "type": "string"
        }
      ],
      "payable": false,
      "stateMutability": "view",
      "type": "function"
    },
    {
      "constant": true,
      "inputs": [],
      "name": "getAllCandidates",
      "outputs": [
        {
          "name": "",
          "type": "address[]"
        },
        {
          "name": "",
          "type": "string[]"
        }
      ],
      "payable": false,
      "stateMutability": "view",
      "type": "function"
    },
    {
      "constant": true,
      "inputs": [
        {
          "name": "_medicalProblemId",
          "type": "uint256"
        }
      ],
      "name": "getMedicalProblemById",
      "outputs": [
        {
          "components": [
            {
              "name": "id",
              "type": "uint256"
            },
            {
              "name": "title",
              "type": "string"
            },
            {
              "name": "beginDate",
              "type": "uint256"
            },
            {
              "name": "endDate",
              "type": "uint256"
            },
            {
              "name": "occurance",
              "type": "string"
            },
            {
              "name": "severity",
              "type": "string"
            },
            {
              "name": "referredBy",
              "type": "string"
            },
            {
              "name": "isAllergyType",
              "type": "bool"
            },
            {
              "name": "patientAddress",
              "type": "address"
            }
          ],
          "name": "",
          "type": "tuple"
        }
      ],
      "payable": false,
      "stateMutability": "view",
      "type": "function"
    },
    {
      "constant": true,
      "inputs": [
        {
          "name": "_patientAddress",
          "type": "address"
        }
      ],
      "name": "getMedicalProblemsByAddress",
      "outputs": [
        {
          "components": [
            {
              "name": "id",
              "type": "uint256"
            },
            {
              "name": "title",
              "type": "string"
            },
            {
              "name": "beginDate",
              "type": "uint256"
            },
            {
              "name": "endDate",
              "type": "uint256"
            },
            {
              "name": "occurance",
              "type": "string"
            },
            {
              "name": "severity",
              "type": "string"
            },
            {
              "name": "referredBy",
              "type": "string"
            },
            {
              "name": "isAllergyType",
              "type": "bool"
            },
            {
              "name": "patientAddress",
              "type": "address"
            }
          ],
          "name": "",
          "type": "tuple[]"
        }
      ],
      "payable": false,
      "stateMutability": "view",
      "type": "function"
    },
    {
      "constant": true,
      "inputs": [],
      "name": "getAllMedicalProblems",
      "outputs": [
        {
          "components": [
            {
              "name": "id",
              "type": "uint256"
            },
            {
              "name": "title",
              "type": "string"
            },
            {
              "name": "beginDate",
              "type": "uint256"
            },
            {
              "name": "endDate",
              "type": "uint256"
            },
            {
              "name": "occurance",
              "type": "string"
            },
            {
              "name": "severity",
              "type": "string"
            },
            {
              "name": "referredBy",
              "type": "string"
            },
            {
              "name": "isAllergyType",
              "type": "bool"
            },
            {
              "name": "patientAddress",
              "type": "address"
            }
          ],
          "name": "",
          "type": "tuple[]"
        }
      ],
      "payable": false,
      "stateMutability": "view",
      "type": "function"
    },
    {
      "constant": true,
      "inputs": [
        {
          "name": "_medicationId",
          "type": "uint256"
        }
      ],
      "name": "getMedicationById",
      "outputs": [
        {
          "components": [
            {
              "name": "id",
              "type": "uint256"
            },
            {
              "name": "name",
              "type": "string"
            },
            {
              "name": "beginDate",
              "type": "uint256"
            },
            {
              "name": "endDate",
              "type": "uint256"
            },
            {
              "name": "dosage",
              "type": "string"
            },
            {
              "name": "referredBy",
              "type": "string"
            },
            {
              "name": "hospName",
              "type": "string"
            },
            {
              "name": "medicalProblemId",
              "type": "uint256"
            },
            {
              "name": "candidateAddress",
              "type": "address[]"
            }
          ],
          "name": "",
          "type": "tuple"
        }
      ],
      "payable": false,
      "stateMutability": "view",
      "type": "function"
    },
    {
      "constant": true,
      "inputs": [],
      "name": "getAllMedications",
      "outputs": [
        {
          "components": [
            {
              "name": "id",
              "type": "uint256"
            },
            {
              "name": "name",
              "type": "string"
            },
            {
              "name": "beginDate",
              "type": "uint256"
            },
            {
              "name": "endDate",
              "type": "uint256"
            },
            {
              "name": "dosage",
              "type": "string"
            },
            {
              "name": "referredBy",
              "type": "string"
            },
            {
              "name": "hospName",
              "type": "string"
            },
            {
              "name": "medicalProblemId",
              "type": "uint256"
            },
            {
              "name": "candidateAddress",
              "type": "address[]"
            }
          ],
          "name": "",
          "type": "tuple[]"
        }
      ],
      "payable": false,
      "stateMutability": "view",
      "type": "function"
    },
    {
      "constant": true,
      "inputs": [
        {
          "name": "_patientAddress",
          "type": "address"
        }
      ],
      "name": "getMedicationsByAddress",
      "outputs": [
        {
          "components": [
            {
              "name": "id",
              "type": "uint256"
            },
            {
              "name": "name",
              "type": "string"
            },
            {
              "name": "beginDate",
              "type": "uint256"
            },
            {
              "name": "endDate",
              "type": "uint256"
            },
            {
              "name": "dosage",
              "type": "string"
            },
            {
              "name": "referredBy",
              "type": "string"
            },
            {
              "name": "hospName",
              "type": "string"
            },
            {
              "name": "medicalProblemId",
              "type": "uint256"
            },
            {
              "name": "candidateAddress",
              "type": "address[]"
            }
          ],
          "name": "",
          "type": "tuple[]"
        }
      ],
      "payable": false,
      "stateMutability": "view",
      "type": "function"
    },
    {
      "constant": true,
      "inputs": [
        {
          "name": "_medicationId",
          "type": "uint256"
        },
        {
          "name": "_candidateAddress",
          "type": "address"
        }
      ],
      "name": "canViewMedicationByCandidate",
      "outputs": [
        {
          "name": "",
          "type": "bool"
        }
      ],
      "payable": false,
      "stateMutability": "view",
      "type": "function"
    },
    {
      "constant": true,
      "inputs": [
        {
          "name": "_candidateAddress",
          "type": "address"
        }
      ],
      "name": "getPatientMedicationsByAddress",
      "outputs": [
        {
          "components": [
            {
              "name": "id",
              "type": "uint256"
            },
            {
              "name": "name",
              "type": "string"
            },
            {
              "name": "beginDate",
              "type": "uint256"
            },
            {
              "name": "endDate",
              "type": "uint256"
            },
            {
              "name": "dosage",
              "type": "string"
            },
            {
              "name": "referredBy",
              "type": "string"
            },
            {
              "name": "hospName",
              "type": "string"
            },
            {
              "name": "medicalProblemId",
              "type": "uint256"
            },
            {
              "name": "candidateAddress",
              "type": "address[]"
            }
          ],
          "name": "",
          "type": "tuple[]"
        }
      ],
      "payable": false,
      "stateMutability": "view",
      "type": "function"
    },
    {
      "constant": true,
      "inputs": [
        {
          "name": "_patientAddress",
          "type": "address"
        },
        {
          "name": "_candidateAddress",
          "type": "address"
        }
      ],
      "name": "getPatientMedicationsByAddress",
      "outputs": [
        {
          "components": [
            {
              "name": "id",
              "type": "uint256"
            },
            {
              "name": "name",
              "type": "string"
            },
            {
              "name": "beginDate",
              "type": "uint256"
            },
            {
              "name": "endDate",
              "type": "uint256"
            },
            {
              "name": "dosage",
              "type": "string"
            },
            {
              "name": "referredBy",
              "type": "string"
            },
            {
              "name": "hospName",
              "type": "string"
            },
            {
              "name": "medicalProblemId",
              "type": "uint256"
            },
            {
              "name": "candidateAddress",
              "type": "address[]"
            }
          ],
          "name": "",
          "type": "tuple[]"
        }
      ],
      "payable": false,
      "stateMutability": "view",
      "type": "function"
    },
    {
      "constant": true,
      "inputs": [
        {
          "name": "_candidateAddress",
          "type": "address"
        }
      ],
      "name": "getPatientMedicalProblemsByAddress",
      "outputs": [
        {
          "components": [
            {
              "name": "id",
              "type": "uint256"
            },
            {
              "name": "title",
              "type": "string"
            },
            {
              "name": "beginDate",
              "type": "uint256"
            },
            {
              "name": "endDate",
              "type": "uint256"
            },
            {
              "name": "occurance",
              "type": "string"
            },
            {
              "name": "severity",
              "type": "string"
            },
            {
              "name": "referredBy",
              "type": "string"
            },
            {
              "name": "isAllergyType",
              "type": "bool"
            },
            {
              "name": "patientAddress",
              "type": "address"
            }
          ],
          "name": "",
          "type": "tuple[]"
        }
      ],
      "payable": false,
      "stateMutability": "view",
      "type": "function"
    },
    {
      "constant": true,
      "inputs": [
        {
          "name": "_patientAddress",
          "type": "address"
        },
        {
          "name": "_candidateAddress",
          "type": "address"
        }
      ],
      "name": "getPatientMedicalProblemsByAddress",
      "outputs": [
        {
          "components": [
            {
              "name": "id",
              "type": "uint256"
            },
            {
              "name": "title",
              "type": "string"
            },
            {
              "name": "beginDate",
              "type": "uint256"
            },
            {
              "name": "endDate",
              "type": "uint256"
            },
            {
              "name": "occurance",
              "type": "string"
            },
            {
              "name": "severity",
              "type": "string"
            },
            {
              "name": "referredBy",
              "type": "string"
            },
            {
              "name": "isAllergyType",
              "type": "bool"
            },
            {
              "name": "patientAddress",
              "type": "address"
            }
          ],
          "name": "",
          "type": "tuple[]"
        }
      ],
      "payable": false,
      "stateMutability": "view",
      "type": "function"
    },
    {
      "constant": false,
      "inputs": [
        {
          "name": "_title",
          "type": "string"
        },
        {
          "name": "_beginDate",
          "type": "uint256"
        },
        {
          "name": "_endDate",
          "type": "uint256"
        },
        {
          "name": "_occurance",
          "type": "string"
        },
        {
          "name": "_severity",
          "type": "string"
        },
        {
          "name": "_referredBy",
          "type": "string"
        },
        {
          "name": "_isAllergyType",
          "type": "bool"
        },
        {
          "name": "_patientAddress",
          "type": "address"
        }
      ],
      "name": "createMedicalProblem",
      "outputs": [],
      "payable": false,
      "stateMutability": "nonpayable",
      "type": "function"
    },
    {
      "constant": false,
      "inputs": [
        {
          "name": "_doctorAddress",
          "type": "address"
        },
        {
          "name": "_medicalProblemId",
          "type": "uint256"
        }
      ],
      "name": "createPatientIssue",
      "outputs": [],
      "payable": false,
      "stateMutability": "nonpayable",
      "type": "function"
    },
    {
      "constant": false,
      "inputs": [
        {
          "name": "_name",
          "type": "string"
        },
        {
          "name": "_beginDate",
          "type": "uint256"
        },
        {
          "name": "_endDate",
          "type": "uint256"
        },
        {
          "name": "_dosage",
          "type": "string"
        },
        {
          "name": "_referredBy",
          "type": "string"
        },
        {
          "name": "_hospName",
          "type": "string"
        },
        {
          "name": "_medicalProblemId",
          "type": "uint256"
        }
      ],
      "name": "createMedication",
      "outputs": [],
      "payable": false,
      "stateMutability": "nonpayable",
      "type": "function"
    },
    {
      "constant": false,
      "inputs": [
        {
          "name": "_patientAddress",
          "type": "address"
        },
        {
          "name": "_medicationId",
          "type": "uint256"
        }
      ],
      "name": "prescribeMedication",
      "outputs": [],
      "payable": false,
      "stateMutability": "nonpayable",
      "type": "function"
    },
    {
      "constant": false,
      "inputs": [
        {
          "name": "_candidateAddress",
          "type": "address"
        },
        {
          "name": "_medicationId",
          "type": "uint256"
        }
      ],
      "name": "shareMedicationTo",
      "outputs": [],
      "payable": false,
      "stateMutability": "nonpayable",
      "type": "function"
    }
  ],
  "bytecode": "0x6080604052600060025560006003556000600455600060055534801561002457600080fd5b5060008054600160a060020a03191633179055614412806100466000396000f3006080604052600436106101ab5763ffffffff7c01000000000000000000000000000000000000000000000000000000006000350416630445cc6881146101b057806304bec5de146101e65780631beb3bb11461020857806323d5512a1461022a578063244fb9b01461024a57806328530aec1461025f5780632e6997fe1461028c5780633063fc4b146102af57806332b9603b146102dc5780634450af98146102fc57806344d292b91461031c5780634a201660146103515780635f1f76f4146103665780636c428d251461039357806381c8f3aa146103b357806382a98d4d146103d35780638d72d670146103e85780638ea9c9a8146103fd57806392deefa11461041d5780639c0d44361461043d578063ad25e8291461046a578063b13c744b14610498578063b40e609e146104c5578063b444dae0146104da578063b8f53d7a146104fa578063cc35f3b31461051a578063ce606ee01461053a578063cfc706c51461054f578063d2bfa43c1461056f578063d6c04bb91461058f578063f093ada3146105bc578063f4a9c229146105dc578063f9fb840b146105fc578063fa8547f61461061c575b600080fd5b3480156101bc57600080fd5b506101d06101cb366004613959565b610650565b6040516101dd919061411f565b60405180910390f35b3480156101f257600080fd5b506101fb610a0d565b6040516101dd91906141bf565b34801561021457600080fd5b50610228610223366004613b28565b610a13565b005b34801561023657600080fd5b506102286102453660046139b9565b610c03565b34801561025657600080fd5b506101fb610cda565b34801561026b57600080fd5b5061027f61027a366004613959565b610ce0565b6040516101dd9190614130565b34801561029857600080fd5b506102a1610dfb565b6040516101dd9291906140fa565b3480156102bb57600080fd5b506102cf6102ca366004613c23565b611056565b6040516101dd919061419d565b3480156102e857600080fd5b506101fb6102f7366004613959565b611380565b34801561030857600080fd5b50610228610317366004613a19565b611392565b34801561032857600080fd5b5061033c610337366004613c23565b611578565b6040516101dd999897969594939291906141cd565b34801561035d57600080fd5b506101d0611826565b34801561037257600080fd5b50610386610381366004613959565b611b40565b6040516101dd919061414f565b34801561039f57600080fd5b506101fb6103ae366004613c23565b611b55565b3480156103bf57600080fd5b5061027f6103ce366004613959565b611b74565b3480156103df57600080fd5b506101fb611f4a565b3480156103f457600080fd5b506101fb611f50565b34801561040957600080fd5b506102286104183660046139e9565b611f56565b34801561042957600080fd5b506101fb610438366004613c23565b612068565b34801561044957600080fd5b5061045d610458366004613959565b612076565b6040516101dd9190614141565b34801561047657600080fd5b5061048a610485366004613959565b6120d2565b6040516101dd9291906140da565b3480156104a457600080fd5b506104b86104b3366004613c23565b612210565b6040516101dd91906140c6565b3480156104d157600080fd5b5061027f612238565b3480156104e657600080fd5b506101d06104f5366004613959565b6125c6565b34801561050657600080fd5b5061027f61051536600461397f565b6126d6565b34801561052657600080fd5b506102286105353660046139e9565b6127cc565b34801561054657600080fd5b506104b8612bf7565b34801561055b57600080fd5b5061045d61056a366004613c41565b612c06565b34801561057b57600080fd5b506101fb61058a366004613959565b612f77565b34801561059b57600080fd5b506105af6105aa366004613c23565b612f89565b6040516101dd91906141ae565b3480156105c857600080fd5b506102286105d73660046139e9565b6132d8565b3480156105e857600080fd5b506101fb6105f7366004613c23565b613383565b34801561060857600080fd5b506101d061061736600461397f565b613391565b34801561062857600080fd5b5061063c610637366004613c23565b613484565b6040516101dd98979695949392919061426f565b606080600060088054905060405190808252806020026020018201604052801561069457816020015b6106816136fb565b8152602001906001900390816106795790505b509150600090505b600854811015610a065783600160a060020a03166008828154811015156106bf57fe5b60009182526020909120600890910201600701546101009004600160a060020a031614156109dc5760088054829081106106f557fe5b9060005260206000209060080201610120604051908101604052908160008201548152602001600182018054600181600116156101000203166002900480601f0160208091040260200160405190810160405280929190818152602001828054600181600116156101000203166002900480156107b35780601f10610788576101008083540402835291602001916107b3565b820191906000526020600020905b81548152906001019060200180831161079657829003601f168201915b505050505081526020016002820154815260200160038201548152602001600482018054600181600116156101000203166002900480601f0160208091040260200160405190810160405280929190818152602001828054600181600116156101000203166002900480156108695780601f1061083e57610100808354040283529160200191610869565b820191906000526020600020905b81548152906001019060200180831161084c57829003601f168201915b505050918352505060058201805460408051602060026001851615610100026000190190941693909304601f81018490048402820184019092528181529382019392918301828280156108fd5780601f106108d2576101008083540402835291602001916108fd565b820191906000526020600020905b8154815290600101906020018083116108e057829003601f168201915b505050918352505060068201805460408051602060026001851615610100026000190190941693909304601f81018490048402820184019092528181529382019392918301828280156109915780601f1061096657610100808354040283529160200191610991565b820191906000526020600020905b81548152906001019060200180831161097457829003601f168201915b50505091835250506007919091015460ff8116151560208301526101009004600160a060020a031660409091015282518390839081106109cd57fe5b602090810290910101526109fe565b81818151811015156109ea57fe5b9060200190602002016109fb6136fb565b90525b60010161069c565b5092915050565b60025481565b610a1b613753565b3360008181526007602052604081205460ff166001811115610a3957fe5b14610a625760405160e560020a62461bcd028152600401610a599061417d565b60405180910390fd5b60048054600190810191829055604080516101208101825283815260208082018e81528284018e9052606083018d9052608083018c905260a083018b905260c083018a905260e08301899052835160008082528184018652610100850191909152958652600c825292909420815181559151805191965086949293610aed93908501929101906137a0565b50604082015160028201556060820151600382015560808201518051610b1d9160048401916020909101906137a0565b5060a08201518051610b399160058401916020909101906137a0565b5060c08201518051610b559160068401916020909101906137a0565b5060e082015160078201556101008201518051610b7c91600884019160209091019061381e565b5050600480546000908152600c602090815260408220600801805460018181018355918452918320909101805473ffffffffffffffffffffffffffffffffffffffff1916331790559154600b805493840181559091527f0175b7a638427703f0dbe7bb9bbf987a2551717b34e79f33b5b1008d1fa01db99091015550505050505050505050565b600054600160a060020a03163314610c305760405160e560020a62461bcd028152600401610a599061417d565b610c3982612076565b15610c595760405160e560020a62461bcd028152600401610a599061415d565b6001805480820182557fb10e2d527612073b26eecdfd717e6a320cf44b4afac2b0732d9fcbe2b7fa0cf601805473ffffffffffffffffffffffffffffffffffffffff1916600160a060020a03851690811790915560009081526007602052604090208054839260ff19909116908381811115610cd157fe5b02179055505050565b60035481565b6060806000600b80549050604051908082528060200260200182016040528015610d2457816020015b610d11613753565b815260200190600190039081610d095790505b509150600190505b600b548111610a0657600160a060020a0384166000908152600e60209081526040808320848452600101909152902054610d6590612f89565b8260018303815181101515610d7657fe5b60209081029091010152815160019083906000198401908110610d9557fe5b60209081029091010151511080610dc95750600b54825183906000198401908110610dbc57fe5b6020908102909101015151115b15610df3578160018203815181101515610ddf57fe5b906020019060200201610df0613753565b90525b600101610d2c565b6060806060806000600180549050604051908082528060200260200182016040528015610e32578160200160208202803883390190505b506001546040805182815260208084028201019091529194508015610e6b57816020015b6060815260200190600190039081610e565790505b509150600090505b60015481101561104c57600060076000600184815481101515610e9257fe5b6000918252602080832090910154600160a060020a0316835282019290925260400190205460ff166001811115610ec557fe5b1415610f1c5760408051808201909152600681527f446f63746f72000000000000000000000000000000000000000000000000000060208201528251839083908110610f0d57fe5b60209081029091010152610ff9565b600160076000600184815481101515610f3157fe5b6000918252602080832090910154600160a060020a0316835282019290925260400190205460ff166001811115610f6457fe5b1415610fac5760408051808201909152600781527f50617469656e740000000000000000000000000000000000000000000000000060208201528251839083908110610f0d57fe5b60408051808201909152601181527f4d65646963616c20417373697374616e7400000000000000000000000000000060208201528251839083908110610fee57fe5b602090810290910101525b600180548290811061100757fe5b6000918252602090912001548351600160a060020a039091169084908390811061102d57fe5b600160a060020a03909216602092830290910190910152600101610e73565b5090939092509050565b61105e6136fb565b60005b60085481101561137a578260088281548110151561107b57fe5b90600052602060002090600802016000015414156113725760088054829081106110a157fe5b9060005260206000209060080201610120604051908101604052908160008201548152602001600182018054600181600116156101000203166002900480601f01602080910402602001604051908101604052809291908181526020018280546001816001161561010002031660029004801561115f5780601f106111345761010080835404028352916020019161115f565b820191906000526020600020905b81548152906001019060200180831161114257829003601f168201915b505050505081526020016002820154815260200160038201548152602001600482018054600181600116156101000203166002900480601f0160208091040260200160405190810160405280929190818152602001828054600181600116156101000203166002900480156112155780601f106111ea57610100808354040283529160200191611215565b820191906000526020600020905b8154815290600101906020018083116111f857829003601f168201915b505050918352505060058201805460408051602060026001851615610100026000190190941693909304601f81018490048402820184019092528181529382019392918301828280156112a95780601f1061127e576101008083540402835291602001916112a9565b820191906000526020600020905b81548152906001019060200180831161128c57829003601f168201915b505050918352505060068201805460408051602060026001851615610100026000190190941693909304601f810184900484028201840190925281815293820193929183018282801561133d5780601f106113125761010080835404028352916020019161133d565b820191906000526020600020905b81548152906001019060200180831161132057829003601f168201915b50505091835250506007919091015460ff8116151560208301526101009004600160a060020a0316604090910152915061137a565b600101611061565b50919050565b600a6020526000908152604090205481565b3360008181526007602052604090205460019060ff16818111156113b257fe5b14806113e25750600160a060020a03811660009081526007602052604081205460ff1660018111156113e057fe5b145b1561156d5760028054600190810191829055604080516101208101825292835260208084018d81529184018c9052606084018b9052608084018a905260a0840189905260c0840188905286151560e0850152600160a060020a0386166101008501526008805493840180825560008290528551949091027ff3f7a9fe364faab93b216da50a3214154f22a0a2b415b23a84c8169e8b636ee3810194855592518051919594936114b8937ff3f7a9fe364faab93b216da50a3214154f22a0a2b415b23a84c8169e8b636ee4909101929101906137a0565b506040820151600282015560608201516003820155608082015180516114e89160048401916020909101906137a0565b5060a082015180516115049160058401916020909101906137a0565b5060c082015180516115209160068401916020909101906137a0565b5060e082015160079190910180546101009384015160ff199091169215159290921774ffffffffffffffffffffffffffffffffffffffff001916600160a060020a03909216909202179055505b505050505050505050565b600880548290811061158657fe5b9060005260206000209060080201600091509050806000015490806001018054600181600116156101000203166002900480601f0160208091040260200160405190810160405280929190818152602001828054600181600116156101000203166002900480156116385780601f1061160d57610100808354040283529160200191611638565b820191906000526020600020905b81548152906001019060200180831161161b57829003601f168201915b505050505090806002015490806003015490806004018054600181600116156101000203166002900480601f0160208091040260200160405190810160405280929190818152602001828054600181600116156101000203166002900480156116e25780601f106116b7576101008083540402835291602001916116e2565b820191906000526020600020905b8154815290600101906020018083116116c557829003601f168201915b5050505060058301805460408051602060026001851615610100026000190190941693909304601f81018490048402820184019092528181529495949350908301828280156117725780601f1061174757610100808354040283529160200191611772565b820191906000526020600020905b81548152906001019060200180831161175557829003601f168201915b5050505060068301805460408051602060026001851615610100026000190190941693909304601f81018490048402820184019092528181529495949350908301828280156118025780601f106117d757610100808354040283529160200191611802565b820191906000526020600020905b8154815290600101906020018083116117e557829003601f168201915b5050506007909301549192505060ff811690600160a060020a036101009091041689565b60606008805480602002602001604051908101604052809291908181526020016000905b82821015611b365783829060005260206000209060080201610120604051908101604052908160008201548152602001600182018054600181600116156101000203166002900480601f0160208091040260200160405190810160405280929190818152602001828054600181600116156101000203166002900480156119125780601f106118e757610100808354040283529160200191611912565b820191906000526020600020905b8154815290600101906020018083116118f557829003601f168201915b505050505081526020016002820154815260200160038201548152602001600482018054600181600116156101000203166002900480601f0160208091040260200160405190810160405280929190818152602001828054600181600116156101000203166002900480156119c85780601f1061199d576101008083540402835291602001916119c8565b820191906000526020600020905b8154815290600101906020018083116119ab57829003601f168201915b505050918352505060058201805460408051602060026001851615610100026000190190941693909304601f8101849004840282018401909252818152938201939291830182828015611a5c5780601f10611a3157610100808354040283529160200191611a5c565b820191906000526020600020905b815481529060010190602001808311611a3f57829003601f168201915b505050918352505060068201805460408051602060026001851615610100026000190190941693909304601f8101849004840282018401909252818152938201939291830182828015611af05780601f10611ac557610100808354040283529160200191611af0565b820191906000526020600020905b815481529060010190602001808311611ad357829003601f168201915b50505091835250506007919091015460ff81161515602080840191909152610100909104600160a060020a0316604090920191909152908252600192909201910161184a565b5050505090505b90565b60076020526000908152604090205460ff1681565b6009805482908110611b6357fe5b600091825260209091200154905081565b6060806000600b80549050604051908082528060200260200182016040528015611bb857816020015b611ba5613753565b815260200190600190039081611b9d5790505b509150600190505b600b548111610a06576000818152600c6020526040902054611be29085612c06565b15611f1d57600c6000828152602001908152602001600020610120604051908101604052908160008201548152602001600182018054600181600116156101000203166002900480601f016020809104026020016040519081016040528092919081815260200182805460018160011615610100020316600290048015611caa5780601f10611c7f57610100808354040283529160200191611caa565b820191906000526020600020905b815481529060010190602001808311611c8d57829003601f168201915b505050505081526020016002820154815260200160038201548152602001600482018054600181600116156101000203166002900480601f016020809104026020016040519081016040528092919081815260200182805460018160011615610100020316600290048015611d605780601f10611d3557610100808354040283529160200191611d60565b820191906000526020600020905b815481529060010190602001808311611d4357829003601f168201915b505050918352505060058201805460408051602060026001851615610100026000190190941693909304601f8101849004840282018401909252818152938201939291830182828015611df45780601f10611dc957610100808354040283529160200191611df4565b820191906000526020600020905b815481529060010190602001808311611dd757829003601f168201915b505050918352505060068201805460408051602060026001851615610100026000190190941693909304601f8101849004840282018401909252818152938201939291830182828015611e885780601f10611e5d57610100808354040283529160200191611e88565b820191906000526020600020905b815481529060010190602001808311611e6b57829003601f168201915b505050505081526020016007820154815260200160088201805480602002602001604051908101604052809291908181526020018280548015611ef457602002820191906000526020600020905b8154600160a060020a03168152600190910190602001808311611ed6575b5050505050815250508260018303815181101515611f0e57fe5b60209081029091010152611f42565b8160018203815181101515611f2e57fe5b906020019060200201611f3f613753565b90525b600101611bc0565b60055481565b60045481565b3360008181526007602052604090205460019060ff1681811115611f7657fe5b1480611fa65750600160a060020a03811660009081526007602052604081205460ff166001811115611fa457fe5b145b1561206357600160a060020a0383161515611fd65760405160e560020a62461bcd028152600401610a599061416d565b60008211611ff95760405160e560020a62461bcd028152600401610a599061418d565b600380546001908101808355600160a060020a0386166000908152600a60209081526040808320938455878352928401905290812085905591546009805492830181559092527f6e1540171b6c0c960b71a7020d9f60077f6af931a8bbf590da0223dacf75c7af01555b505050565b600b805482908110611b6357fe5b6000805b6001548110156120c95782600160a060020a031660018281548110151561209d57fe5b600091825260209091200154600160a060020a031614156120c1576001915061137a565b60010161207a565b50600092915050565b604080516020810190915260008082529060609082908160015481101561220557600160a060020a03861660009081526007602052604081205460ff16600181111561211a57fe5b141561215e5760408051808201909152600681527f446f63746f72000000000000000000000000000000000000000000000000000060208201528693509150612205565b6001600160a060020a03871660009081526007602052604090205460ff16600181111561218757fe5b14156121cb5760408051808201909152600781527f50617469656e740000000000000000000000000000000000000000000000000060208201528693509150612205565b60408051808201909152601181527f4d65646963616c20417373697374616e74000000000000000000000000000000602082015286935091505b509094909350915050565b600180548290811061221e57fe5b600091825260209091200154600160a060020a0316905081565b6060806000600b8054905060405190808252806020026020018201604052801561227c57816020015b612269613753565b8152602001906001900390816122615790505b509150600190505b600b54811161137a57600c6000828152602001908152602001600020610120604051908101604052908160008201548152602001600182018054600181600116156101000203166002900480601f0160208091040260200160405190810160405280929190818152602001828054600181600116156101000203166002900480156123505780601f1061232557610100808354040283529160200191612350565b820191906000526020600020905b81548152906001019060200180831161233357829003601f168201915b505050505081526020016002820154815260200160038201548152602001600482018054600181600116156101000203166002900480601f0160208091040260200160405190810160405280929190818152602001828054600181600116156101000203166002900480156124065780601f106123db57610100808354040283529160200191612406565b820191906000526020600020905b8154815290600101906020018083116123e957829003601f168201915b505050918352505060058201805460408051602060026001851615610100026000190190941693909304601f810184900484028201840190925281815293820193929183018282801561249a5780601f1061246f5761010080835404028352916020019161249a565b820191906000526020600020905b81548152906001019060200180831161247d57829003601f168201915b505050918352505060068201805460408051602060026001851615610100026000190190941693909304601f810184900484028201840190925281815293820193929183018282801561252e5780601f106125035761010080835404028352916020019161252e565b820191906000526020600020905b81548152906001019060200180831161251157829003601f168201915b50505050508152602001600782015481526020016008820180548060200260200160405190810160405280929190818152602001828054801561259a57602002820191906000526020600020905b8154600160a060020a0316815260019091019060200180831161257c575b50505050508152505082600183038151811015156125b457fe5b60209081029091010152600101612284565b606080600060088054905060405190808252806020026020018201604052801561260a57816020015b6125f76136fb565b8152602001906001900390816125ef5790505b509150600090505b600854811015610a0657600160a060020a0384166000908152600a60209081526040808320600185810185520190915290205461264e90611056565b828281518110151561265c57fe5b60209081029091010152815160019083908390811061267757fe5b602090810290910101515110806126a75750600854825183908390811061269a57fe5b6020908102909101015151115b156126ce5781818151811015156126ba57fe5b9060200190602002016126cb6136fb565b90525b600101612612565b606080606060006126e686610ce0565b9250825160405190808252806020026020018201604052801561272357816020015b612710613753565b8152602001906001900390816127085790505b509150600190505b825181116127bf57612755838281518110151561274457fe5b602090810290910101515186612c06565b1561279257828181518110151561276857fe5b90602001906020020151826001830381518110151561278357fe5b602090810290910101526127b7565b81600182038151811015156127a357fe5b9060200190602002016127b4613753565b90525b60010161272b565b8193505b50505092915050565b60006127d6613753565b336000908152600e602090815260408083208684526001908101835281842054808552600c8452938290208251610120810184528154815281830180548551600295821615610100026000190190911694909404601f810187900487028501870190955284845295975094909385810193908301828280156128995780601f1061286e57610100808354040283529160200191612899565b820191906000526020600020905b81548152906001019060200180831161287c57829003601f168201915b505050505081526020016002820154815260200160038201548152602001600482018054600181600116156101000203166002900480601f01602080910402602001604051908101604052809291908181526020018280546001816001161561010002031660029004801561294f5780601f106129245761010080835404028352916020019161294f565b820191906000526020600020905b81548152906001019060200180831161293257829003601f168201915b505050918352505060058201805460408051602060026001851615610100026000190190941693909304601f81018490048402820184019092528181529382019392918301828280156129e35780601f106129b8576101008083540402835291602001916129e3565b820191906000526020600020905b8154815290600101906020018083116129c657829003601f168201915b505050918352505060068201805460408051602060026001851615610100026000190190941693909304601f8101849004840282018401909252818152938201939291830182828015612a775780601f10612a4c57610100808354040283529160200191612a77565b820191906000526020600020905b815481529060010190602001808311612a5a57829003601f168201915b505050505081526020016007820154815260200160088201805480602002602001604051908101604052809291908181526020018280548015612ae357602002820191906000526020600020905b8154600160a060020a03168152600190910190602001808311612ac5575b505050505081525050905060008160000151118015612b025750805182145b1515612b235760405160e560020a62461bcd028152600401610a599061417d565b6101008101518051612b3d9160069160209091019061381e565b506006805460018101825560008290527ff652222313e28459528d920b65115c16c04f3efc82aaedc97be59f3f377c0d3f01805473ffffffffffffffffffffffffffffffffffffffff1916600160a060020a038716179055805460408051602080840282018101909252828152929190830182828015612be657602002820191906000526020600020905b8154600160a060020a03168152600190910190602001808311612bc8575b505050506101009092015250505050565b600054600160a060020a031681565b6000612c10613753565b6000848152600c6020908152604080832081516101208101835281548152600180830180548551600293821615610100026000190190911692909204601f81018790048702830187019095528482529194929385840193919291830182828015612cbb5780601f10612c9057610100808354040283529160200191612cbb565b820191906000526020600020905b815481529060010190602001808311612c9e57829003601f168201915b505050505081526020016002820154815260200160038201548152602001600482018054600181600116156101000203166002900480601f016020809104026020016040519081016040528092919081815260200182805460018160011615610100020316600290048015612d715780601f10612d4657610100808354040283529160200191612d71565b820191906000526020600020905b815481529060010190602001808311612d5457829003601f168201915b505050918352505060058201805460408051602060026001851615610100026000190190941693909304601f8101849004840282018401909252818152938201939291830182828015612e055780601f10612dda57610100808354040283529160200191612e05565b820191906000526020600020905b815481529060010190602001808311612de857829003601f168201915b505050918352505060068201805460408051602060026001851615610100026000190190941693909304601f8101849004840282018401909252818152938201939291830182828015612e995780601f10612e6e57610100808354040283529160200191612e99565b820191906000526020600020905b815481529060010190602001808311612e7c57829003601f168201915b505050505081526020016007820154815260200160088201805480602002602001604051908101604052809291908181526020018280548015612f0557602002820191906000526020600020905b8154600160a060020a03168152600190910190602001808311612ee7575b5050505050815250509150600090505b81610100015151811015612f6a5783600160a060020a031682610100015182815181101515612f4057fe5b90602001906020020151600160a060020a03161415612f625760019250612f6f565b600101612f15565b600092505b505092915050565b600e6020526000908152604090205481565b612f91613753565b60015b600b54811161137a576000818152600c60205260409020548314156132d057600c6000828152602001908152602001600020610120604051908101604052908160008201548152602001600182018054600181600116156101000203166002900480601f0160208091040260200160405190810160405280929190818152602001828054600181600116156101000203166002900480156130765780601f1061304b57610100808354040283529160200191613076565b820191906000526020600020905b81548152906001019060200180831161305957829003601f168201915b505050505081526020016002820154815260200160038201548152602001600482018054600181600116156101000203166002900480601f01602080910402602001604051908101604052809291908181526020018280546001816001161561010002031660029004801561312c5780601f106131015761010080835404028352916020019161312c565b820191906000526020600020905b81548152906001019060200180831161310f57829003601f168201915b505050918352505060058201805460408051602060026001851615610100026000190190941693909304601f81018490048402820184019092528181529382019392918301828280156131c05780601f10613195576101008083540402835291602001916131c0565b820191906000526020600020905b8154815290600101906020018083116131a357829003601f168201915b505050918352505060068201805460408051602060026001851615610100026000190190941693909304601f81018490048402820184019092528181529382019392918301828280156132545780601f1061322957610100808354040283529160200191613254565b820191906000526020600020905b81548152906001019060200180831161323757829003601f168201915b5050505050815260200160078201548152602001600882018054806020026020016040519081016040528092919081815260200182805480156132c057602002820191906000526020600020905b8154600160a060020a031681526001909101906020018083116132a2575b505050505081525050915061137a565b600101612f94565b3360008181526007602052604081205460ff1660018111156132f657fe5b146133165760405160e560020a62461bcd028152600401610a599061417d565b50600580546001908101808355600160a060020a039094166000908152600e6020908152604080832096875585835295830190529384209290925554600d805492830181559092527fd7b6990105719101dabeb77144f2a3385c8033acd3af97e9423a695e81ad1eb50155565b600d805482908110611b6357fe5b606080606060006133a1856125c6565b925082516040519080825280602002602001820160405280156133de57816020015b6133cb6136fb565b8152602001906001900390816133c35790505b509150600090505b82518110156127bf5785600160a060020a0316838281518110151561340757fe5b906020019060200201516101000151600160a060020a0316141561345a57828181518110151561343357fe5b90602001906020020151828281518110151561344b57fe5b6020908102909101015261347c565b818181518110151561346857fe5b9060200190602002016134796136fb565b90525b6001016133e6565b600c602090815260009182526040918290208054600180830180548651600293821615610100026000190190911692909204601f8101869004860283018601909652858252919492939092908301828280156135215780601f106134f657610100808354040283529160200191613521565b820191906000526020600020905b81548152906001019060200180831161350457829003601f168201915b505050505090806002015490806003015490806004018054600181600116156101000203166002900480601f0160208091040260200160405190810160405280929190818152602001828054600181600116156101000203166002900480156135cb5780601f106135a0576101008083540402835291602001916135cb565b820191906000526020600020905b8154815290600101906020018083116135ae57829003601f168201915b5050505060058301805460408051602060026001851615610100026000190190941693909304601f810184900484028201840190925281815294959493509083018282801561365b5780601f106136305761010080835404028352916020019161365b565b820191906000526020600020905b81548152906001019060200180831161363e57829003601f168201915b5050505060068301805460408051602060026001851615610100026000190190941693909304601f81018490048402820184019092528181529495949350908301828280156136eb5780601f106136c0576101008083540402835291602001916136eb565b820191906000526020600020905b8154815290600101906020018083116136ce57829003601f168201915b5050505050908060070154905088565b61012060405190810160405280600081526020016060815260200160008152602001600081526020016060815260200160608152602001606081526020016000151581526020016000600160a060020a031681525090565b610120604051908101604052806000815260200160608152602001600081526020016000815260200160608152602001606081526020016060815260200160008152602001606081525090565b828054600181600116156101000203166002900490600052602060002090601f016020900481019282601f106137e157805160ff191683800117855561380e565b8280016001018555821561380e579182015b8281111561380e5782518255916020019190600101906137f3565b5061381a92915061388c565b5090565b828054828255906000526020600020908101928215613880579160200282015b82811115613880578251825473ffffffffffffffffffffffffffffffffffffffff1916600160a060020a0390911617825560209092019160019091019061383e565b5061381a9291506138a6565b611b3d91905b8082111561381a5760008155600101613892565b611b3d91905b8082111561381a57805473ffffffffffffffffffffffffffffffffffffffff191681556001016138ac565b60006138e3823561435b565b9392505050565b60006138e38235614367565b60006138e38235614378565b6000601f8201831361391357600080fd5b813561392661392182614329565b614302565b9150808252602083016020830185838301111561394257600080fd5b6127c3838284614392565b60006138e38235611b3d565b60006020828403121561396b57600080fd5b600061397784846138d7565b949350505050565b6000806040838503121561399257600080fd5b600061399e85856138d7565b92505060206139af858286016138d7565b9150509250929050565b600080604083850312156139cc57600080fd5b60006139d885856138d7565b92505060206139af858286016138f6565b600080604083850312156139fc57600080fd5b6000613a0885856138d7565b92505060206139af8582860161394d565b600080600080600080600080610100898b031215613a3657600080fd5b883567ffffffffffffffff811115613a4d57600080fd5b613a598b828c01613902565b9850506020613a6a8b828c0161394d565b9750506040613a7b8b828c0161394d565b965050606089013567ffffffffffffffff811115613a9857600080fd5b613aa48b828c01613902565b955050608089013567ffffffffffffffff811115613ac157600080fd5b613acd8b828c01613902565b94505060a089013567ffffffffffffffff811115613aea57600080fd5b613af68b828c01613902565b93505060c0613b078b828c016138ea565b92505060e0613b188b828c016138d7565b9150509295985092959890939650565b600080600080600080600060e0888a031215613b4357600080fd5b873567ffffffffffffffff811115613b5a57600080fd5b613b668a828b01613902565b9750506020613b778a828b0161394d565b9650506040613b888a828b0161394d565b955050606088013567ffffffffffffffff811115613ba557600080fd5b613bb18a828b01613902565b945050608088013567ffffffffffffffff811115613bce57600080fd5b613bda8a828b01613902565b93505060a088013567ffffffffffffffff811115613bf757600080fd5b613c038a828b01613902565b92505060c0613c148a828b0161394d565b91505092959891949750929550565b600060208284031215613c3557600080fd5b6000613977848461394d565b60008060408385031215613c5457600080fd5b600061399e858561394d565b613c698161435b565b82525050565b6000613c7a82614357565b808452602084019350613c8c83614351565b60005b82811015613cbc57613ca2868351613c60565b613cab82614351565b602096909601959150600101613c8f565b5093949350505050565b6000613cd182614357565b808452602084019350613ce383614351565b60005b82811015613cbc57613cf9868351613c60565b613d0282614351565b602096909601959150600101613ce6565b6000613d1e82614357565b80845260208401935083602082028501613d3785614351565b60005b84811015613d6e578383038852613d52838351613e42565b9250613d5d82614351565b602098909801979150600101613d3a565b50909695505050505050565b6000613d8582614357565b80845260208401935083602082028501613d9e85614351565b60005b84811015613d6e578383038852613db9838351613f11565b9250613dc482614351565b602098909801979150600101613da1565b6000613de082614357565b80845260208401935083602082028501613df985614351565b60005b84811015613d6e578383038852613e14838351613fe4565b9250613e1f82614351565b602098909801979150600101613dfc565b613c6981614367565b613c6981614387565b6000613e4d82614357565b808452613e6181602086016020860161439e565b613e6a816143ce565b9093016020019392505050565b601281527f416c726561647920726567697374657265640000000000000000000000000000602082015260400190565b601b81527f506c6561736520656e74657220646f63746f7220616464726573730000000000602082015260400190565b6000815260200190565b601f81527f506c6561736520656e746572206d65646963616c2070726f626c656d20696400602082015260400190565b8051600090610120840190613f2685826140bd565b5060208301518482036020860152613f3e8282613e42565b9150506040830151613f5360408601826140bd565b506060830151613f6660608601826140bd565b5060808301518482036080860152613f7e8282613e42565b91505060a083015184820360a0860152613f988282613e42565b91505060c083015184820360c0860152613fb28282613e42565b91505060e0830151613fc760e0860182613e30565b50610100830151613fdc610100860182613c60565b509392505050565b8051600090610120840190613ff985826140bd565b50602083015184820360208601526140118282613e42565b915050604083015161402660408601826140bd565b50606083015161403960608601826140bd565b50608083015184820360808601526140518282613e42565b91505060a083015184820360a086015261406b8282613e42565b91505060c083015184820360c08601526140858282613e42565b91505060e083015161409a60e08601826140bd565b506101008301518482036101008601526140b48282613cc6565b95945050505050565b613c6981611b3d565b602081016140d48284613c60565b92915050565b604081016140e88285613c60565b81810360208301526139778184613e42565b6040808252810161410b8185613c6f565b905081810360208301526139778184613d13565b602080825281016138e38184613d7a565b602080825281016138e38184613dd5565b602081016140d48284613e30565b602081016140d48284613e39565b602080825281016140d481613e77565b602080825281016140d481613ea7565b602080825281016140d481613ed7565b602080825281016140d481613ee1565b602080825281016138e38184613f11565b602080825281016138e38184613fe4565b602081016140d482846140bd565b61012081016141dc828c6140bd565b81810360208301526141ee818b613e42565b90506141fd604083018a6140bd565b61420a60608301896140bd565b818103608083015261421c8188613e42565b905081810360a08301526142308187613e42565b905081810360c08301526142448186613e42565b905061425360e0830185613e30565b614261610100830184613c60565b9a9950505050505050505050565b610100810161427e828b6140bd565b8181036020830152614290818a613e42565b905061429f60408301896140bd565b6142ac60608301886140bd565b81810360808301526142be8187613e42565b905081810360a08301526142d28186613e42565b905081810360c08301526142e68185613e42565b90506142f560e08301846140bd565b9998505050505050505050565b60405181810167ffffffffffffffff8111828210171561432157600080fd5b604052919050565b600067ffffffffffffffff82111561434057600080fd5b506020601f91909101601f19160190565b60200190565b5190565b600160a060020a031690565b151590565b60006002821061381a57fe5b60006002821061381a57600080fd5b60006140d48261436c565b82818337506000910152565b60005b838110156143b95781810151838201526020016143a1565b838111156143c8576000848401525b50505050565b601f01601f1916905600a265627a7a72305820c649e615dd80dc8a323715c45b905577411ef224c0187e54d5900f69d7e456f26c6578706572696d656e74616cf50037",
  "source": "pragma solidity >=0.4.21 <0.6.0;\n\npragma experimental ABIEncoderV2;\n\n/** @title MedicalRecord. */\ncontract MedicalRecord {\n  // State variables\n  address public contractOwner;\n  address[] public candidateList;\n  uint public medicalProblemCount = 0;\n  uint public patientIssueCount = 0;\n  uint public medicationCount = 0;\n  uint public patientMedicationCount = 0;\n  address[] doctorAddresses;\n\n  enum Roles { DOCTOR, PATIENT }\n\n  // Store roles of each candidate to their corresponding addresses\n  mapping(address => Roles) public candidateRoles;\n\n  // Store accesses that is/are controlled by roles of each candidate to their corresponding addresses\n  // mapping(address => bool) public candidateCanAccess;\n\n  struct MedicalProblem {\n    uint id;\n    string title;\n    uint beginDate;\n    uint endDate;\n    string occurance;\n    string severity;\n    string referredBy;\n    bool isAllergyType;\n    address patientAddress;\n  }\n  MedicalProblem[] public medicalProblems;\n\n  struct patientIssue {\n    uint id;\n    mapping(uint => uint) medicalProblemIds; // This patient can have multiple medicalProblems\n  }\n  uint[] public patientIssueIndexes;\n  mapping(address => patientIssue) public patientIssues;\n\n  struct Medication {\n    uint id;\n    string name;\n    uint beginDate;\n    uint endDate;\n    string dosage;\n    string referredBy;\n    string hospName;\n    uint medicalProblemId;\n    address[] candidateAddress; // Can share to multiple doctors by single patientMedication\n  }\n  uint[] public medicationIndexes;\n  mapping(uint => Medication) public medications;\n\n  struct patientMedication {\n    uint id;\n    mapping(uint => uint) medicationIds; // This patient can have multiple medications\n  }\n  uint[] public patientMedicationIndexes;\n  mapping(address => patientMedication) public patientMedications;\n\n  constructor() public {\n    contractOwner = msg.sender; // Set the contract owner address\n  }\n\n  modifier onlyOwner {\n    require(msg.sender == contractOwner, '');\n    _;\n  }\n\n  modifier onlyDoctor(address _address) {\n    require(candidateRoles[_address] == Roles.DOCTOR, '');\n    _;\n  }\n\n  modifier onlyPatient(address _address) {\n    require(candidateRoles[_address] == Roles.PATIENT, '');\n    _;\n  }\n\n  modifier onlyPatientOrDoctor(address _address) {\n    if(candidateRoles[_address] == Roles.PATIENT || candidateRoles[_address] == Roles.DOCTOR) {\n      _;\n    }\n  }\n\n  // All candidates have to go through this registration process\n  // And only contract owner can register the candidate\n  function registerCandidate(address _candidate, Roles _candidateRoles) public onlyOwner {\n    require(!validateCandidate(_candidate), 'Already registered');\n    candidateList.push(_candidate);\n    candidateRoles[_candidate] = _candidateRoles; // Set role for this candidate\n  }\n\n  // Check if this candidate is registered or not before allowing resources access.\n  function validateCandidate(address _candidate) public view returns (bool) {\n    for(uint i = 0; i < candidateList.length; i++) {\n      if(candidateList[i] == _candidate) {\n        return true;\n      }\n    }\n    return false;\n  }\n  \n  function getCandidateByAddress(address _candidate) public view returns(address, string memory) {\n    address _candidateAddress = address(0); // empty address\n    string memory _candidateRole = \"\";\n    for(uint i = 0; i < candidateList.length; i++) {\n      if(candidateRoles[_candidate] == Roles.DOCTOR) {\n        _candidateRole = \"Doctor\";\n        _candidateAddress = _candidate;\n        break;\n      } else if(candidateRoles[_candidate] == Roles.PATIENT) {\n          _candidateRole = \"Patient\";\n          _candidateAddress = _candidate;\n          break;\n      } else{\n          _candidateRole = \"Medical Assistant\";\n          _candidateAddress = _candidate;\n          break;\n      }\n    }\n    return(_candidateAddress, _candidateRole);\n  }\n\n  function getAllCandidates() public view returns(address[] memory, string[] memory) {\n    address[] memory _candidateAddresses = new address[](candidateList.length);\n    string[] memory _candidateRoles = new string[](candidateList.length);\n    for(uint i = 0; i < candidateList.length; i++) {\n      if(candidateRoles[candidateList[i]] == Roles.DOCTOR) {\n        _candidateRoles[i] = \"Doctor\";\n      } else if(candidateRoles[candidateList[i]] == Roles.PATIENT) {\n          _candidateRoles[i] = \"Patient\";\n      } else {\n          _candidateRoles[i] = \"Medical Assistant\";\n      }\n      _candidateAddresses[i] = candidateList[i];\n    }\n    return(_candidateAddresses, _candidateRoles);\n  }\n\n//   function getMsgSender() public view returns(address _msgSender) {\n//     _msgSender = msg.sender;\n//   }\n//this makes no sense;\n\n    \n//   function getAllMedicalProblems() public view returns(\n//       uint[] memory, string[] memory, uint[] memory, uint[] memory, string[] memory, string[] memory, string[] memory, bool[] memory, address[] memory) {\n//       uint[] memory _id = new uint[](medicalProblems.length);\n//       uint[] memory _beginDate = new uint[](medicalProblems.length);\n//       uint[] memory _endDate = new uint[](medicalProblems.length);\n//       string[] memory _title = new string[](medicalProblems.length);\n//       string[] memory _occurance = new string[](medicalProblems.length);\n//       string[] memory _severity = new string[](medicalProblems.length);\n//       string[] memory _referredBy = new string[](medicalProblems.length);\n//       bool[] memory _isAllergyType = new bool[](medicalProblems.length);\n//       address[] memory _patientAddress = new address[](medicalProblems.length);\n      \n//       for(uint i = 0; i < medicalProblems.length; i++) {\n//           MedicalProblem storage _medicalProblem = medicalProblems[i];\n//           _id[i] = _medicalProblem.id;\n//           _beginDate[i] = _medicalProblem.beginDate;\n//           _endDate[i] = _medicalProblem.endDate;\n//           _title[i] = _medicalProblem.title;\n//           _occurance[i] = _medicalProblem.occurance;\n//           _severity[i] = _medicalProblem.severity;\n//           _referredBy[i] = _medicalProblem.referredBy;\n//           _isAllergyType[i] = _medicalProblem.isAllergyType;\n//           _patientAddress[i] = _medicalProblem.patientAddress;\n//       }\n//       return (_id, _title, _beginDate, _endDate, _occurance, _severity, _referredBy, _isAllergyType, _patientAddress);\n//   }\n\n  function getMedicalProblemById(uint _medicalProblemId) public view returns(MedicalProblem memory) {\n    for(uint i = 0; i < medicalProblems.length; i++) {\n      if(medicalProblems[i].id == _medicalProblemId) return medicalProblems[i];\n    }\n  }\n\n  // Call by patient\n  function getMedicalProblemsByAddress(address _patientAddress) public view returns(MedicalProblem[] memory) {\n    MedicalProblem[] memory _medicalProblems = new MedicalProblem[](medicalProblems.length);\n    for(uint i = 0; i < medicalProblems.length; i++) {\n      if(medicalProblems[i].patientAddress == _patientAddress) {\n        _medicalProblems[i] = medicalProblems[i];\n      }\n      else delete _medicalProblems[i]; // Remove empty elements from MedicalProblem array;\n    }\n    return _medicalProblems;\n  }\n\n  function getAllMedicalProblems() public view returns(MedicalProblem[] memory) {\n    return medicalProblems;\n  }\n\n  function getMedicationById(uint _medicationId) public view returns(Medication memory) {\n    for(uint i = 1; i <= medicationIndexes.length; i++) {\n      if(medications[i].id == _medicationId) return medications[i];\n    }\n  }\n\n  // Call by provider\n  function getAllMedications() public view returns(Medication[] memory) {\n    Medication[] memory _medications = new Medication[](medicationIndexes.length);\n\n    for(uint i = 1; i <= medicationIndexes.length; i++) {\n      _medications[i-1] = medications[i];\n    }\n    return _medications;\n  }\n\n  // Call by patient\n  function getMedicationsByAddress(address _patientAddress) public view returns(Medication[] memory) {\n    Medication[] memory _medications = new Medication[](medicationIndexes.length);\n    for(uint i = 1; i <= medicationIndexes.length; i++) {\n      _medications[i-1] = getMedicationById(patientMedications[_patientAddress].medicationIds[i]);\n      if(_medications[i-1].id < 1 || _medications[i-1].id > medicationIndexes.length) {\n        delete _medications[i-1]; // Remove empty elements from Medication array\n      }\n    }\n    return _medications;\n  }\n\n  // Call by doctor\n  function getPatientMedicationsByAddress(address _candidateAddress) public view returns(Medication[] memory) {\n    Medication[] memory _medications = new Medication[](medicationIndexes.length);\n    for(uint i = 1; i <= medicationIndexes.length; i++) {\n      if(canViewMedicationByCandidate(medications[i].id, _candidateAddress)) {\n        _medications[i-1] = medications[i];\n      }\n      else delete _medications[i-1]; // Remove empty elements from Medication array;\n    }\n    return _medications;\n  }\n\n  // Check if this \"_candidateAddress\" can view medication \"_medicationId\" medication\n  function canViewMedicationByCandidate(uint _medicationId, address _candidateAddress) public view returns (bool) {\n    Medication memory _medication = medications[_medicationId];\n    for(uint i = 0; i < _medication.candidateAddress.length; i++) {\n      if(_medication.candidateAddress[i] == _candidateAddress) return true;\n    }\n    return false;\n  }\n\n  // Call by doctor\n  function getPatientMedicationsByAddress(address _patientAddress, address _candidateAddress) public view returns(Medication[] memory) {\n    Medication[] memory _medications = getMedicationsByAddress(_patientAddress);\n    Medication[] memory __medications = new Medication[](_medications.length);\n\n    for(uint i = 1; i <= _medications.length; i++) {\n      if(canViewMedicationByCandidate(_medications[i].id, _candidateAddress)) {\n        __medications[i-1] = _medications[i];\n      }\n      else delete __medications[i-1]; // Remove empty elements from Medication array;\n    }\n    return __medications;\n  }\n\n  // Call by doctor\n  function getPatientMedicalProblemsByAddress(address _candidateAddress) public view returns(MedicalProblem[] memory) {\n    MedicalProblem[] memory _medicalProblems = new MedicalProblem[](medicalProblems.length);\n\n    for(uint i = 0; i < medicalProblems.length; i++) {\n      _medicalProblems[i] = getMedicalProblemById(patientIssues[_candidateAddress].medicalProblemIds[i+1]);\n      if(_medicalProblems[i].id < 1 || _medicalProblems[i].id > medicalProblems.length) {\n        delete _medicalProblems[i]; // Remove empty elements from Medication array\n      }\n    }\n    return _medicalProblems;\n  }\n\n  // Call by doctor\n  function getPatientMedicalProblemsByAddress(address _patientAddress, address _candidateAddress) public view returns(MedicalProblem[] memory) {\n    MedicalProblem[] memory _medicalProblems = getPatientMedicalProblemsByAddress(_candidateAddress);\n    MedicalProblem[] memory __medicalProblems = new MedicalProblem[](_medicalProblems.length);\n\n    for(uint i = 0; i < _medicalProblems.length; i++) {\n      if(_medicalProblems[i].patientAddress == _patientAddress) {\n        __medicalProblems[i] = _medicalProblems[i];\n      }\n      else delete __medicalProblems[i]; // Remove empty elements from MedicalProblem array;\n    }\n    return __medicalProblems;\n  }\n\n   /**@dev Creates a medical issue by patient\n    * @param _title {string} address of doctor for whom this issue to examine\n    * @param _beginDate {uint} begin date of issue\n    * @param _endDate {uint} end date of issue\n    * @param _occurance {string} how many times this issue occurrs\n    * @param _severity {string} severity of this issue\n    * @param _referredBy {string} person who refers this issue\n    * @param _isAllergyType {bool} is this issue allergy or not\n    * @param _patientAddress {address} address of patient for whom this issue belongs\n    */\n  function createMedicalProblem(\n    string memory _title,\n    uint _beginDate,\n    uint _endDate,\n    string memory _occurance,\n    string memory _severity,\n    string memory _referredBy,\n    bool _isAllergyType,\n    address _patientAddress) public onlyPatientOrDoctor(msg.sender) {\n    // Require a valid doctor to create medication\n    //require(_candidateRoles == Roles.PATIENT, 'Only patient can submit medical issue');\n    // Increment medicalProblem count\n    medicalProblemCount ++;\n    // Create the medical problem\n    medicalProblems.push(MedicalProblem(\n      medicalProblemCount,\n      _title,\n      _beginDate,\n      _endDate,\n      _occurance,\n      _severity,\n      _referredBy,\n      _isAllergyType,\n      _patientAddress\n    ));\n  }\n\n   /**@dev Creates a patient issue submitted by a patient.\n    * @param _doctorAddress {address} address of doctor for whom this issue to examine\n    * @param _medicalProblemId {uint} medical problem id\n    */\n  function createPatientIssue(\n    address _doctorAddress,\n    uint _medicalProblemId) public onlyPatientOrDoctor(msg.sender) {\n    // Require a valid doctor address to submit patient issue\n    require(_doctorAddress != address(0), 'Please enter doctor address');\n\n     // Medical problem id is must require to create patient issue\n    require(_medicalProblemId > 0, 'Please enter medical problem id');\n\n    // Increment medicalProblem count\n    patientIssueCount ++;\n\n    patientIssues[_doctorAddress].id = patientIssueCount;\n    patientIssues[_doctorAddress].medicalProblemIds[_medicalProblemId] = _medicalProblemId;\n\n    // Save index\n    patientIssueIndexes.push(patientIssueCount);\n  }\n\n  function createMedication(\n  string memory _name,\n    uint _beginDate,\n    uint _endDate,\n    string memory _dosage,\n    string memory _referredBy,\n    string memory _hospName,\n    uint _medicalProblemId) public onlyDoctor(msg.sender) {\n    // Increment medication count\n    medicationCount ++;\n    // Create the medication\n    Medication memory _medication = Medication(\n      medicationCount,\n      _name,\n      _beginDate,\n      _endDate,\n      _dosage,\n      _referredBy,\n      _hospName,\n      _medicalProblemId,\n      new address[](0)\n    );\n    medications[medicationCount] = _medication;\n    medications[medicationCount].candidateAddress.push(msg.sender);\n\n    // Save index\n    medicationIndexes.push(medicationCount);\n  }\n\n  function prescribeMedication(address _patientAddress, uint _medicationId) public onlyDoctor(msg.sender) {\n    // Increment patient count\n    patientMedicationCount ++;\n    patientMedications[_patientAddress].id = patientMedicationCount;\n    patientMedications[_patientAddress].medicationIds[_medicationId] = _medicationId;\n\n    // save index\n    patientMedicationIndexes.push(patientMedicationCount);\n  }\n// onlyPatient(msg.sender)\n  function shareMedicationTo(address _candidateAddress, uint _medicationId) public {\n    // Fetch the medication\n    uint _patientMedicationId = patientMedications[msg.sender].medicationIds[_medicationId];\n    Medication memory _medication = medications[_patientMedicationId];\n\n    // Make sure this medication has a valid id\n    require(_medication.id > 0 && _medication.id == _patientMedicationId, '');\n    // Share this patient medication to \"_candidateAddress\" address\n    doctorAddresses = _medication.candidateAddress;\n    doctorAddresses.push(_candidateAddress);\n    _medication.candidateAddress = doctorAddresses;\n  }\n}\n",
  "sourcePath": "/Users/codegig/Documents/my stuffs/4D_files/Git/MERN-MEDICAL-Blockchain/contracts/medical.sol",
  "compiler": {
    "name": "solc",
    "version": "0.4.26+commit.4563c3fc.Emscripten.clang"
  },
  "schemaVersion": "3.0.11",
  "updatedAt": "2019-09-21T14:07:50.448Z",
  "devdoc": {
    "methods": {
      "createMedicalProblem(string,uint256,uint256,string,string,string,bool,address)": {
        "details": "Creates a medical issue by patient",
        "params": {
          "_beginDate": "{uint} begin date of issue",
          "_endDate": "{uint} end date of issue",
          "_isAllergyType": "{bool} is this issue allergy or not",
          "_occurance": "{string} how many times this issue occurrs",
          "_patientAddress": "{address} address of patient for whom this issue belongs",
          "_referredBy": "{string} person who refers this issue",
          "_severity": "{string} severity of this issue",
          "_title": "{string} address of doctor for whom this issue to examine"
        }
      },
      "createPatientIssue(address,uint256)": {
        "details": "Creates a patient issue submitted by a patient.",
        "params": {
          "_doctorAddress": "{address} address of doctor for whom this issue to examine",
          "_medicalProblemId": "{uint} medical problem id"
        }
      }
    },
    "title": "MedicalRecord. "
  },
  "userdoc": {
    "methods": {}
  }
}